:020000041000EA
:1000000000B5324B212058609868022188439860DF
:10001000D860186158612E4B002199600221596106
:100020000121F02299502B49196001219960352056
:1000300000F044F80222904214D00621196600F024
:1000400034F8196E01211966002018661A6600F04E
:100050002CF8196E196E196E052000F02FF8012189
:100060000842F9D1002199601B49196000215960AB
:100070001A491B48016001219960EB211966A021F2
:10008000196600F012F800219960164914480160C1
:100090000121996001BC002800D000471248134993
:1000A000086003C880F30888084703B5996A0420EC
:1000B0000142FBD001200142F8D103BD02B5186610
:1000C0001866FFF7F2FF186E186E02BD00000240BE
:1000D000000000180000070000035F00212200005C
:1000E000F4000018222000A00001001008ED00E03C
:1000F00000000000000000000000000074B24E7A12
:1001000000200420F7010010C3010010C5010010F9
:10011000C1010010C1010010C1010010C101001097
:10012000C1010010C1010010C1010010C701001081
:10013000C1010010C1010010C9010010CB01001065
:10014000CD010010CD010010CD010010CD01001037
:10015000CD010010CD010010CD010010CD01001027
:10016000CD010010CD010010CD010010CD01001017
:10017000CD010010CD010010CD010010CD01001007
:10018000CD010010CD010010CD010010CD010010F7
:10019000CD010010CD010010CD010010CD010010E7
:1001A000CD010010CD010010CD010010CD010010D7
:1001B000CD010010CD010010CD010010CD010010C7
:1001C00000BE00BE00BE00BE00BE00BEEFF3058054
:1001D000103800BEF2EB8871704F0010944F001081
:1001E0003402001090A31AE700201F49086006C8D7
:1001F00081F3088810471D48006800282FD10DA4FE
:100200000ECC002902D000F012F8F9E71849194A7B
:10021000002000E001C19142FCD1174988471749ED
:1002200088471749884700BEFDE701C901C29A42C5
:10023000FBD37047944F0010C000002098020020AC
:100240006C51001000000420000004206C510010CC
:10025000001004200010042000000000704709482E
:1002600001F04CFD0047000008ED00E0000000D068
:1002700098020020480A0220691B0010690400103F
:100280005D1C00105756000006005250ABB360537F
:100290009C4E001006005250861C0302AC4E00100B
:1002A000060052505422A29DC44E00100500525028
:1002B000DE65F4686C510010F8B5C0460448054B83
:1002C00010B5834203D0044B002B00D0984710BDDB
:1002D000980200209802002000000000064807490C
:1002E000091A8B10C90FC91810B5491003D0044B57
:1002F000002B00D0984710BD9802002098020020E3
:100300000000000010B5074C2378002B09D1FFF73F
:10031000D5FF054B002B02D0044800E000BF0123AD
:10032000237010BD9803002000000000004E001054
:10033000054B10B5002B03D00449054800E000BF71
:10034000FFF7CCFF10BDC046000000009C0300205A
:10035000004E0010F0B5C64680260D2000B500F016
:10036000E1F8D025114BB601984637002D066E6294
:1003700043466421186803F005FA002812D00524CA
:1003800064206F6103F040FF013C6420AE6103F024
:100390003BFF002CF4D140460023002200210068DE
:1003A00002F0DEFF642003F02FFFE1E700080220E7
:1003B000F0B5C64680260E2000B500F0B3F8D02573
:1003C000114BF601984637002D066E6243466421B4
:1003D000186803F0D7F9002812D0052464206F6153
:1003E00003F012FF013C6420AE6103F00DFF002C0E
:1003F000F4D14046002300220021006802F0B0FF43
:10040000642003F001FFE1E700080220F0B5C646D2
:1004100080260F2000B500F085F8D025114B36025C
:10042000984637002D066E6243466421186803F033
:10043000A9F9002812D0052464206F6103F0E4FEBE
:10044000013C6420AE6103F0DFFE002CF4D1404695
:10045000002300220021006802F082FF642003F0E4
:10046000D3FEE1E70008022010B586B002F0D4F810
:10047000002303220021012003930493059302F03B
:100480001FFF154B1860002804D000231A00190024
:1004900002F066FF0124802203AB10490193920011
:1004A00000230F48009403F0AFFB802204AB0D49FA
:1004B0000193920000230C48009403F0A5FB8022D6
:1004C00005AB0A490193920000230948009403F008
:1004D0009BFB03F0D9FCFEE700080220004E001051
:1004E00055030010104E0010B1030010204E0010F4
:1004F0000D040010094A830094464022634410B55D
:100500001C68C0006240C024144080225201134382
:100510001C60034B9C466044416010BD04C0014018
:10052000004001400123D022834012069362936170
:10053000094A83009446402263441968C0004A4037
:10054000C02111408022520113431960034B9C4685
:10055000052360444360704704C0014000400140EF
:10056000024B18688007C00F7047C04600C00640A5
:10057000F8B5EFF3108772B60E4E3368002BFCD03F
:10058000BFF35F8FCB08C4180725A446C45C0123C2
:100590000D40AB4018002040234208D1624623435F
:1005A0001370BFF35F8F306087F31088F8BD1000C1
:1005B00001F058FB2C0100D00021044B044ABFF38A
:1005C0005F8F02C39342FAD17047C046000100D04A
:1005D000800100D0044A1078431CDBB2172B00D9ED
:1005E000102313707047C046B001002001238340E0
:1005F000002904D0034A1360034A13607047034A7A
:100600001360FBE780E200E000E100E080E100E051
:10061000024B10309B688000C058704700ED00E02E
:1006200070B50D00EFF3108672B60F4A1368002BF9
:10063000FCD0BFF35F8F0D4B10309B6884001B59BB
:100640000B4A934203D09D4201D001F029FB074B96
:100650009B681D51BFF35F8FBFF35F8F0022024B7A
:100660001A6086F3108870BD240100D000ED00E010
:10067000CD010010F0B5DE4657464E464546E0B582
:100680000C0083B0EFF3108972B6594A1368002B3F
:10069000FCD0BFF35F8F574B9A68030010339F0065
:1006A000D559554A9046954232D0A54243D0534E33
:1006B000AA1B2F2A2CD80122824092465146504A2A
:1006C00012681140019151464E4A1160BFF35F8F8D
:1006D000EFF305829346002A33D101232A009A437F
:1006E00093689C4208D178E04B005B189B00F3189C
:1006F0009968A1422AD01A00062151560029F3DA3E
:10070000019B002B19D052463F4B1A603C4B1A609C
:10071000384B9B68DD51BFF35F8FBFF35F8F0022C3
:10072000334B1A6089F3108803B03CBC904699465D
:10073000A246AB46F0BD1500EAE75246314B1A60BF
:10074000E6E79342C9D001F0ABFAC6E70621595655
:10075000002922DB4A005018800034188046A06827
:100760009860E079D871062020569871A0797F288A
:1007700024D8A488F01A6405241544440019E02400
:100780000005400D24022043988052181F4B920010
:10079000B6181A781970B271B2E7594600290FD10C
:1007A000FF3191711A49918018490A789A71194A52
:1007B0009B1B5B415A43120D0A70A1E71648E3E701
:1007C000164A1749D21A083A5002400D014399803F
:1007D000144952080A43DA8092E706215156130061
:1007E0000029B7DA5A46002AEAD14546DCE7C04676
:1007F000240100D000ED00E0CD010010B401002084
:1008000000E100E080E100E080E200E0FD0702207E
:1008100001BDFFFFAAAA000001BD0000EE010020FB
:1008200000F0FFFF00F8FFFF032310B50400074AA4
:1008300018409446C0009C43FC33834064442268C3
:1008400081409A4313000B43236010BD00E400E095
:10085000F0B5EFF3058101240443EFF3108672B67F
:10086000214A1368002BFCD0BFF35F8F1F4B05009C
:100870001F4AED1A6D416A43120D1E4D8900AF6883
:1008800052B27F58A7421CD00621595691421CD023
:1008900012215956914222D01E215956914220D000
:1008A0002A2159560324914210D0134B19781A70FB
:1008B0008171BFF35F8F00220B4B1A6086F31088A3
:1008C000F0BDAB680D4C5C50EFE7002461000919E6
:1008D00089005B18FF21997109499980E5E7012496
:1008E000F4E70224F2E7C046240100D0B40100205E
:1008F000AAAA000000ED00E0FD070220CD010010D3
:1009000001BDFFFF054B064A1360064A13605360A2
:100910009360D360136153619361704780808080DE
:1009200000E400E004E400E0024B9C4661448900DE
:10093000016070474000003410B50400FFF74AFE24
:1009400001002000FFF7F0FF01235B426360BFF36B
:100950005F8F10BD10B50400FFF73CFE01002000C2
:10096000FFF7E2FF01235B42636000232372BFF3C2
:100970005F8F10BD83680B4810B5844661446244A4
:10098000090112019A18591854684B6801209C42B9
:1009900001D802D00020C0B210BD12680B689A4284
:1009A000F9D8F7E7FFFFFF0F074810B50268EFF32C
:1009B000108172B61368002BFCD0BFF35F8F02F07A
:1009C0005DF90020002110BDF4060020F8B557465F
:1009D00045464E46DE46E0B599460CAB19780DAB60
:1009E0001B78050090469A460768002912D1BE7B05
:1009F000002E45D074003B68A419033C1B195A789B
:100A00003100BA73002A00D1FA7300229A705A702A
:100A10001A7003E00E004C006418033C2C4B0022BB
:100A20009C46AB6861449C464346090161440B60A7
:100A30004B464B600A9B8B600B9BCB603B681B1942
:100A40009A705A701A707B7B9B46002B2CD0320018
:100A50005946B8687B6898473A68002817D05B46C3
:100A600058465B005B441419033BA070D118D35C5B
:100A7000002B00D063705B460E707B73B34514D0BF
:100A800030003CBC90469946A246AB46F8BD5B465A
:100A90005B005B44033BD3189E701119125D002A62
:100AA00000D05A705B460B707E7342464B46287DE1
:100AB00000F038FB041E06D05346002B03D1310052
:100AC000286800F075FD0E9B002BD9D01C70D7E76D
:100AD000FFFFFF0FF0B5DE4657464E464546002362
:100AE000E0B58BB00893674B8200D45800239B4637
:100AF000099000F09DFA626806000F00EFF3108580
:100B000072B61368002BFCD0BFF35F8F23689C463E
:100B10005B7B9946002B00D169E0A2685A4B904656
:100B20004B441B01984443461A685B681000190047
:100B3000801BB941002900DC63E0099800F0F2FA5B
:100B400000230022984600230692079300239A462A
:100B50006368BFF35F8F5A461A6085F31088534667
:100B6000002B08D10028C4D10BB03CBC904699465C
:100B7000A246AB46F0BD089B414618024B461843BF
:100B8000D047626806000F00EFF3108572B6136855
:100B9000002BFCD0BFF35F8F002F50DB33003B43B3
:100BA00002D02369002B61D12368DA7B002A07D0A9
:100BB00051008A1819688C4649466244033A5170BC
:100BC0009A7B002A01D14A469A734A46DA734B4609
:100BD000E168013BCA5C0132CA545B462361636829
:100BE000BFF35F8F5A461A6085F3108881E70023B0
:100BF00000229846002306920793002300209A467D
:100C0000A6E7002902D1002800D096E7002160461F
:100C100000F02CFC43461A685B6806920793434633
:100C20009B689A464346DB689846E3684B44013B21
:100C30001B7808931B0203432361002088E7236984
:100C4000002BB1D0069A079B921BBB41002B15DBF2
:100C5000594604910121039149460291414601916F
:100C6000514620000091FFF7B1FEB6E700F0E0F931
:100C700032003B0012184B41002BE9DA0122034BF2
:100C80005242E5E740040020FFFFFF0FFFFFFF7F18
:100C900010B5144C6368002B04D00A211248FFF7EA
:100CA00043FE10BD2300114A1021206800F0F8FA1D
:100CB000032000F0B1F9032000F09EFA03200C4954
:100CC00000F0EAF9FFF786FC0A4B9C4603232375E4
:100CD000D0231B061B6860446375074B800060606F
:100CE000DC60DAE7FC010020F40600207509001042
:100CF000D50A00104000003440040020F0B54E46F4
:100D00004546DE465746E0B585B0019310AB1B78EB
:100D100080460393002300269946009243465A6872
:100D2000EFF3108B72B61368002BFCD0BFF35F8F0C
:100D300043461D68AC7B002C43D067002B683F19ED
:100D4000033FDB195A78AA73002A00D1EA7342469E
:100D50009E705E701E709268494B94460099019A8D
:100D6000E3181B01634419605A600E9A9A600F9A47
:100D7000DA602B68DB199E705E701E706B7B9A4682
:100D8000002B68D022001900A8686B6898472A6871
:100D9000002853D0534650465B005344D719033BB9
:100DA000B870D118D35C002B00D07B7053460C7008
:100DB0006B73544550D04346DB681B19013B1878D0
:100DC00000E0002043465B68BFF35F8F1E608BF33B
:100DD0001088002C51D04B46002B08D10002204334
:100DE00005B03CBC90469946A246AB46F0BD039B7D
:100DF000002B40D00E9B00200F9998470300040061
:100E00000D000B4337D000290ADA009A019B121B10
:100E1000AB4100920193002B0ADB039B99467DE7CF
:100E200000F006F924184D4100940195002DF4DAE4
:100E30000123144C5B4200930194EEE753465B00A0
:100E40005344033BD3189C70D119D25D002A00D0C3
:100E50005A7053460B706C734346187D009A019B81
:100E600000F060F981460028A5D0434621001868AB
:100E700000F09EFB9FE70020B2E701204042AFE771
:100E8000FFFFFF0FFFFFFF7FF0B5EFF30583CE46B7
:100E9000474680B505000C0085B0002B12D02C4BC6
:100EA0000020596A8C4203D89B6A0130AB4204D3BC
:100EB00005B00CBC90469946F0BD611A481E8141B0
:100EC000C8B2F5E7234E02930193234B020000932F
:100ED00030000B00FFF712FF031EE0DD20BF71683A
:100EE000EFF3108772B60A68002AFCD0BFF35F8F59
:100EF000DAB294463068427B62451DD0FF221A4028
:100F00005100894601689144884649464144033965
:100F10008978002913D0F1681B0A88464244013AB7
:100F20001278DBB29A420FD07368BFF35F8F002252
:100F30001A6087F31088B2E7FF221A40EBE73269A4
:100F40009342F1D13161EFE7614600F031FBEBE70D
:100F500000400540FC010020A9090010F0B5EFF3A6
:100F60000582D6464F4646461000C0B51038EFF30E
:100F7000108872B6214C2368002BFCD0BFF35F8F22
:100F80000123190081401E4D1F006963AA461D4DB3
:100F900029601D4D2E78AC463500C5402F402B42B0
:100FA00015D05346194D5F6A83005D59AF4218D37F
:100FB000174A8E439B5862461670BFF35F8F00221C
:100FC000226088F31088002B06D0984704E0BFF316
:100FD0005F8F276088F310881CBC90469946A24614
:100FE000F0BD0C4B92009C46624413681360BFF343
:100FF0005F8F0023236088F31088EDE7280100D07D
:10100000004005403C700540FE070220F806002025
:10101000B4030020D03F054010B50100024A034848
:10102000FFF7A6FA10BDC046304E0010FC070220A4
:10103000034B596A0A00986A596A8A42FAD1704782
:101040000040054070B504000D00124A536A1900B3
:10105000966A536A8B42FAD13000190024184D4128
:10106000AB4211D80ED02B000A494A6A9A42FCD3EF
:1010700007D1084A02E0516A994202D1916AA1421D
:10108000F9D370BDA642EED9012301246442E517CD
:101090005B42E9E70040054070B504000D00EFF346
:1010A000108672B61A4A1368002BFCD0BFF35F8F0C
:1010B000002D1BD02000FFF7ABFA164981420AD061
:1010C0002000FFF7ADFA01212000FFF78FFA01237E
:1010D000A340114A1360114BA400E550BFF35F8F8A
:1010E00000220B4B1A6086F3108870BD0B4BA200D8
:1010F000D5500122A2400A4920000B7893430B707F
:101100000449FFF7B7FA00212000FFF76FFAE5E77F
:10111000280100D05D0F001038600540B4030020A6
:10112000FE070220F0B54F46D6464646C0B507003A
:101130002C4C616A0D00A66A616AA942FAD18B4201
:1011400008D805D001201CBC90469946A246F0BDA7
:10115000B242F7D9EFF3108972B62348016800292B
:10116000FCD0BFF35F8F01252049BD408C46097834
:101170001C4C0E002E438846F1B28A46614650460A
:101180000870391D1A48890065630A51B9000B506F
:10119000216A0020294219D0616A0800A66A616AA2
:1011A0008142FAD18B4219D801D1B24216D8C24538
:1011B00016D00C4B1F201D625D6301230740BB400E
:1011C0000C4A1E381360634642461A70BFF35F8FA5
:1011D0000022054B1A6089F31088B4E70020F5E778
:1011E0000120F3E700400540280100D0FE0702205F
:1011F000F806002080E200E010B5EFF3108472B62C
:101200000A490B68002BFCD0BFF35F8F012383409A
:10121000074A0848136202789A430270BFF35F8F4F
:1012200000230B6084F3108810BDC046280100D055
:1012300000400540FE07022070B505000E001400B6
:10124000002924D0002A24D080686B689847296838
:1012500000280ED063001B197200033B9219CB18B3
:10126000033A9E7088188A5C002A14D104703000FA
:101270000EE073009B196200033B1219CB18033A6E
:101280009C7088188A5C002A00D05A700670200072
:1012900070BD0800FCE75A7004703000F8E7C046E3
:1012A00030B583600023CCB24373013304734260D2
:1012B0008373C4730D000068012C06D9421C0133EE
:1012C000DBB2137003329C42F9D1FF2129404B005D
:1012D0005918002340180338437030BDF8B5CE4686
:1012E000474606000C0080B5002907D04D00036872
:1012F0006D18033D5A195778002F04D120000CBCFB
:1013000090469946F8BD7900C91903398846434487
:101310005978894600215970517073683A0021004C
:10132000806898473368002814D042469A18947011
:1013300059195B5D002B00D053700F702700494690
:101340003000FFF7CBFF390002003000FFF774FFD9
:101350000400D3E7424641465D19AF709A185B5CC2
:10136000002B00D06B701470E9E7C046F0B557460B
:101370004546DE464E46E0B50D006B0001685B1940
:10138000DF1E0400C85D83B00192CA19002850D046
:1013900043001B18033BCB185E78B446002E1AD1CD
:1013A000019E002E42D0E67B002E04D073009B19D4
:1013B000CB18033B5D70A37B002B00D1A573E573B5
:1013C00000282FD10023537003B03CBC90469946AF
:1013D000A246AB46F0BD72006244033A89184A78CF
:1013E000904600224A7091465A7001003200200057
:1013F000FFF722FF43468246002B07D05B0021689F
:101400004344033BCB185A78002A16D14246514632
:101410002000FFF711FF2168019BCA19002BC2D1E0
:101420000028CFD043001B18033BCB180021997034
:10143000C8E7019B002BB6D1C4E7500080180338E1
:10144000091848788346484648705870414620003D
:10145000FFF7F2FE594680462000FFF73FFF414666
:1014600002002000FFF7E8FE8046CFE7F0B54E46C9
:101470004546DE465746E0B5467B040075000068E9
:10148000AD19033D83B00191415D4219002952D04D
:101490004B005B18033BC3185F78BC46002F1CD180
:1014A000019D002D44D0E57B002D04D06B005B191D
:1014B000C318033B5E70A37B002B00D1A673E673B9
:1014C000002931D1002330005370617303B03CBC5C
:1014D00090469946A246AB46F0BD7A006244033A74
:1014E0008018427893460022427091465A7020003C
:1014F0003A00FFF7A1FE5B468046002B07D05B0059
:1015000021685B44033BCB185A78002A17D15A460E
:1015100041462000FFF790FE019B01002068421920
:10152000002BC0D10029CDD04B005B18033BC31862
:1015300000209870C6E7019B002BB4D1C2E7500091
:101540008018033809184878824648464870587011
:1015500059462000FFF770FE53468346002B07D004
:101560005B0021685344033BCB185A78002A06D10C
:10157000594652462000FFF75FFE8346C7E75000FA
:1015800080180338091848464F78487058705146FB
:101590002000FFF751FE390081462000FFF79EFE34
:1015A000494602002000FFF747FE8246E0E7C046BA
:1015B00070B5040000292CD0437B8B422ED00568E7
:1015C00048004018033828188278002A21D0530098
:1015D0009B18033BEA5CEE188A4202D11BE0002A0A
:1015E00008D053009B18033BEB185A788A42F6D177
:1015F00042785A7000230122837043702000FFF765
:10160000B5FE617B02002000FFF716FE607301202B
:1016100000E0002070BD43783370EBE70122190031
:10162000FFF7A4FE60730120F4E7C046F8B5CE468C
:101630004746040080B506200D0000F023FA061E80
:1016400052D0524B5249E3185A4253418022D2039E
:1016500094465B4213404F4A634413604E4A136002
:1016600018008A689043FBD1484B8021E3185A4206
:1016700053414A4A5B0049000620995200F002FAA1
:101680002900C00000F068FBC30932D14022904617
:101690003F3A6262A362266BF30736D427008025A7
:1016A000E36A00232C376D013D432B60062026633F
:1016B00000F0E8F94146800000F04EFB236B060085
:1016C0009846DB073BD46022E36A5A406E231340FE
:1016D0002B6043462363802310229B013B431A6007
:1016E0002F4B23630323A36430000CBC9046994620
:1016F000F8BD2C4A93423FD900232B4A90462B4AEF
:101700006262A362266BF307C8D52200C023303281
:101710009B011343224A06201A60656AA36AAD0141
:10172000ED1800F0AFF9224900F016FBAD02010000
:10173000280000F011FB0021FFF784FCAEE7220037
:10174000C02330329B011343154A06201A60636A96
:10175000A26A9B019946914400F094F94B461449C2
:101760009B02994600F0F8FA0100484600F0F4FAAE
:101770000021FFF767FCA6E77F2210409A01904600
:10178000013040081A008044030082E70080FCBF5B
:1017900000C0004000E0004000F0004004080220CB
:1017A00001030000FEFF0000C0FF3F00FFFF00003C
:1017B0004E0E000030B50C2083B000F0B9F9FEF7F2
:1017C000CFFE00280ED0994B994A1A605A609A6051
:1017D000DA601A615A619A61DA611A62954A5A624C
:1017E00003B030BD944CA06700F0AAF90122934BDE
:1017F0001A60636C012BFCD10322914B1A608E4A54
:10180000936B012BFCD1013301218E4A8E4800934A
:10181000043300F03DF905238C4A009301218C48E4
:1018200000F036F98B4B5A68FF2A02D8802252000A
:101830005A6080227D4C824B21691201854D1A60CD
:10184000002907D0606900F087FA431C5800C018CF
:101850000338FDD2E0217F4B02201A68114080221C
:1018600052012A4311601968484003210140116068
:1018700004219A681142FCD08022802192012A43DF
:1018800009011160802252005A60734B2361734B2F
:101890005968FF2900D85A6003227048674B01211C
:1018A0001A60020093681942FCD0E02513681D40BD
:1018B00080235B0103431D6012684A4003211140ED
:1018C00019600221654A93681942FCD08023802167
:1018D0009B010343090119608021614B490051605C
:1018E0006361604B5A68FF2A00D8596080225E4BC2
:1018F000E16912015B4D1A60002907D0606900F0B0
:101900002BFA431C5800C0180338FDD2E022554979
:101910000B681A4080235B012B431A6080238022CE
:101920009B012B4312011A608022414B52004A60F6
:10193000E3614E4B5968FF2900D85A6080224C4B16
:10194000216A1201494D1A60002907D0606900F030
:1019500003FA431C5800C0180338FDD2E022434963
:101960000B681A4080235B012B431A60802380227E
:101970009B012B4312011A60802380225B004B6085
:101980002B4BD20223623B4B5968914200D25A60E2
:101990008022394B616A1201364D1A60002907D046
:1019A000606900F0D9F9431C5800C0180338FDD213
:1019B000E02230490B681A4080235B012B431A60F8
:1019C000802380229B012B4312011A608023DB02BB
:1019D0004B60184B6362294B5A68FF2A02D8802259
:1019E00052005A608022264BA1691201234D1A60D1
:1019F000002907D0606900F0AFF9431C5800C018F7
:101A00000338FDD2E0221D490B681A4080235B0198
:101A10002B431A60802380229B012B4312011A6002
:101A200080235B004B600E4BA361D9E6CC03002002
:101A3000006CDC021BB70000008000403CB000409E
:101A400030B00040002F685900800240008C86476B
:101A500000C0024030800040001BB7003C800040C6
:101A6000405973075480004054B0004060800040EB
:101A700060B000406C8000406CB000404880004086
:101A800048B00040014B8000C0587047CC03002094
:101A9000F8B50400214817001D000E0000F05CF9A5
:101AA0000100380000F058F9069A2B041203134382
:101AB0002268002A21DB1A4AA21851424A41802199
:101AC00049018C4652420A40164962440A6016494E
:101AD0000A60164917008D68AF43FBD1C021221D53
:101AE0008901114321222660A0600A602268002A31
:101AF000FCDAE36008230B60F8BD3F2221680A404E
:101B0000B242D8D1A2681205120D8242D3D1EE2181
:101B1000E268C9020A409A42CDD1EDE7001BB70046
:101B20000040FDBF00E0004000F0004000C0004069
:101B30008023024A9B000343D36270470080054024
:101B4000AA23064A1B0113602F230549D360054BC6
:101B500019605368002BFCDA7047C0460040024011
:101B600000B0FA00006002402C4B2D4A70B51A609C
:101B70002C4A2D4B2D491A6010008B689843FBD1DD
:101B80002B4C2C4B9C4209D2013B1D1BAD0801354F
:101B9000AD002D1908CC9847AC42FBD1FFF70AFEE7
:101BA000254A214B1A60214A9368DB018033FBD11F
:101BB0004022224B224C234D9A675A671A67DA66F5
:101BC000AC4208D223682000002B21D00C34FEF751
:101BD000C1FEAC42F6D31C4C1C4DA168C0222800AB
:101BE00000F0BEFBA560FEF7E7FCFEF78BFEFFF7FB
:101BF0004FF8174C174B9C4209D2013B1D1BAD08F7
:101C00000135AD002D1908CC9847A542FBD170BD18
:101C10000834FEF791FEAC42D4D3DCE700E000408C
:101C2000BFCDFBFEFE7F3C0000F0004000C0004046
:101C30008002002090020020FFFFFF0100F0014021
:101C4000700200208002002000ED00E00000002073
:101C5000900200209802002000BEFDE710B5FFF7BB
:101C6000FBFFC0460FB400B5084883B000F09EFCEF
:101C7000049B002B07D005A91800019100F01EF865
:101C8000034800F093FC0120FFF7E6FF544E0010DC
:101C9000644E001010B50148FFF7E4FF684E0010D5
:101CA00010B50148FFF7DEFF784E001010B5002890
:101CB00000D110BD00F02EFCFBE7C04610B5094A6C
:101CC0000300146884B0002C08D00122009106485B
:101CD000524203A9A047012004B010BD00F066FCE9
:101CE0000020F9E73C040020AD1C0010014804214D
:101CF000014B1847300200201D1D0010142310B5A1
:101D00000100188804331B88984710BD162310B5AE
:101D10000100188802331B88984710BDF0B5C646ED
:101D200000B5002916D01423040001259846182771
:101D3000890046184346216818883B88984701C4A3
:101D4000431E984140420540A642F3D1280004BCFE
:101D50009046F0BD0125F9E7114A936F9B0813D215
:101D600010665166002905D0FFE7FFE7FFE7516FD6
:101D7000106F704704B5002801D00020C04303F065
:101D80002FF8002104BDC046F0B5146E556E576F94
:101D9000166FFFF7E5FF1466556657671667F0BDC7
:101DA000000000D094464A4A926F9208624601D2DF
:101DB00028E0C046F0B5464E346E756E776F366FCC
:101DC00000F020F89446424A146655665767166735
:101DD0006246F0BD94463E4A926F9208624601D236
:101DE00054E0C046F0B53A4E346E756E776F366F7C
:101DF00000F04CF89446364A1466556657671667E5
:101E00006246F0BD002B24DB11D000293EDA00B57C
:101E1000C943404200D1013100F038F8C943404283
:101E200000D10131DB43524200D1013300BD002A11
:101E3000EBD1002801D1002905D00020C90FC90726
:101E400001D1C043410800B502F0C2FF00220023C7
:101E500000BD00B500290ADBDB43524200D101334B
:101E600000F014F8C943404200D1013100BDC9431C
:101E7000404200D10131DB43524200D1013300F036
:101E800005F8DB43524200D1013300BD002923D1C4
:101E9000002B18D1002A0CD0BC460D4F38667A664C
:101EA00000210023FFE7FFE7FFE77A6F386F6746FF
:101EB0007047002801D00748010000B502F088FFF4
:101EC0000022002300BD02000B000020002170470B
:101ED000000000D0FFFFFFFF002B00D0BFE0130C7D
:101EE00028D1002AE7D080B4114F39667A66FFE71F
:101EF000FFE730B4040C7B6F396F1B0423433B6650
:101F00007A66FFE7FFE7FFE7C04684B27B6F3D6F6D
:101F10001B0423433B667A66FFE7FFE7C0460023C6
:101F20002C042D0C7A6F386F00196941B0BC7047D2
:101F3000000000D0F0B594460025140E01D1120225
:101F40000835140F01D112010435940F01D192000C
:101F50000235D40F01D152000135D40B0134254F85
:101F60007C66254C3C660E0C93B2FFE7FFE7FFE76B
:101F70003C6F6643360C7703BE467343DF0B5B044E
:101F8000C01AB941130C7343DB18C91ACE08664353
:101F9000360CB64493B273431F0F1B01C01AB941EC
:101FA000130C73431F0B1B05C01AB941860D8F021A
:101FB0003E436643360C092D24DB520A7243801AD5
:101FC0007703460A6643360C16235B1BDE40DF4070
:101FD000BF1964466643821B704604350633010010
:101FE000D940A840C01900D30131A24206D2002333
:101FF000F0BD0000000000D0FFFFFFFF121B01300A
:10200000F3D3F1E709277F1BFE406446A2B2724377
:10201000801A00D20139220C7243130C1204821A66
:1020200099410B007046043513370100F940A84070
:10203000801900D30131002B02D1A2420AD2F0BD97
:10204000013000D30131121BFAD2013BF8D1A24278
:1020500000D2F0BD013000D30131121BF7E7F0B51B
:102060001C0C00D080E00CB400251C0A04D11B021B
:10207000160E3343120208351C0B04D11B01160F38
:102080003343120104359C0B04D19B00960F33435C
:1020900092000235DC0B02D192185B4101351C0025
:1020A000971864410134464F7C66464C3C660E0CE2
:1020B000FFE7FFE7FFE7C0463C6F6643360C770358
:1020C000BE4697B27743C01B00D20139C01B00D275
:1020D00001399FB27743C91BC91B170C77437E0494
:1020E000FF0B801BB941CE086643360C0C2D33DB49
:1020F000B644120B1F053A431B0B97B27743C01B24
:1021000000D201399FB27743C91B170C77433E04B5
:102110003F0C801BB941860D8F023E436643292741
:102120007F1BFE400C3D7746AF40BF1930BCA2B2CA
:10213000ABB272437343801A9941220C7243130C61
:102140001204801A994102000B000137001BA941BB
:10215000F9D2781E0021F0BD0C277F1BFE40774688
:102160007F0BAF40FF19E0E700245D1C07D0144F40
:102170007D663966FFE7FFE7FFE7FFE73C6F95B253
:102180009EB265436643401BB141150C1E0C65436E
:10219000664336042F0C3E432D04401BB141994247
:1021A00004D202000B0020000021F0BD01D19042BA
:1021B000F7D3801A994101349942F2D3F6E700002F
:1021C000000000D0FFFFFFFF132370B51D78012D25
:1021D00015D010DD2748FFF799FD274C010080221C
:1021E000200000F0BDF8022D06D02448FFF786FD40
:1021F000234B186070BD204C224AA264F5E72E00E4
:102200001D4C204AA3085B421E401D422FD03300C4
:1022100022602020B1006118801B0A604A608A6039
:10222000CA600A614A618A61CA610A624A628A6254
:10223000CA620A634A638A63CA630A644A648A6434
:10224000CA640A654A658A65CA650A664A668A6614
:10225000CA660A674A674008102803D18A67CA67B6
:10226000A264C2E71E339B00E250A264BDE70023D4
:10227000CFE7C04653440000080802204C3300005A
:10228000F00600208922001007B5604601880A0A7E
:102290000230DF2AFAD1C9B2820804D3028840880A
:1022A0000004104300E00068014A5050039007BD4D
:1022B00008080220132310B512481C78FFF726FDEA
:1022C0000100012C0AD003DD80220F4800F048F8FD
:1022D0000E48FFF713FD0E4B186010BD0A4C542238
:1022E000200000F03DF80B4B6365A365E3652366B2
:1022F0006366A366E36623676367A367E367236296
:10230000E361E5E753460000080902204C33000072
:10231000F00600201923001007B5604601880A0A5C
:102320000230DF2AFAD1C9B2820804D30288408879
:102330000004104300E00068014A5050039007BDBC
:102340000809022001480421014B184740020020DF
:102350001D1D0010014B1B681847000040020020A3
:10236000014B5B681847000040020020030010B5D5
:1023700008001B681100984710BDC046F8B54746D5
:10238000CE4680B5437D07000D001600002B37D0E8
:1023900000240020002A1EDD4B1E98461B4B994648
:1023A000002C2BD043461B5D0D3B5A425341DBB200
:1023B0002A5D0A2A13D00134A642F1DC864203DDED
:1023C000311A3B6828189847AD19013D2B780D3B11
:1023D0005A4253413B750CBC90469946F8BD002BC0
:1023E000E9D1A04203DA211A3B68281898474846E9
:1023F00002213B68013498472000DDE73B7DD7E7A9
:102400000368110028009847E5E7C046F44E001025
:10241000F0B5DE4657464E464546E0B585B0170056
:102420001C0006000D00FEF703FE0023324A1218BE
:102430004B41002B5BDB314908008A4602F0D8FC97
:1024400001906B1C03D1300002F084FC0500002CCD
:1024500028D12B4B98462B4B1C68002C15D0002FF5
:1024600023D1294F02E02469002C0ED02368002BD1
:10247000F9D03B68002B01D0A342F4D120002A0000
:102480003100C0472469002CF0D1019B002B2AD1D8
:10249000681E8541E8B205B03CBC90469946A2460C
:1024A000AB46F0BD194B9846D5E7174B994602ABA2
:1024B000DF1D0A239B4602E02469002CE5D0236837
:1024C000002BF9D04B461B68002B01D0A342F3D15F
:1024D0002A0031002000C0475B460122390020005D
:1024E0003B70C047E8E7504602F06AFCD0E70122A3
:1024F000074B52429FE7C04640420F00780200203F
:102500007D23001034040020380400206D230010C7
:10251000FFFFFF7FF0B5CE46474680B583B06B46E0
:102520000500DE1D3070FEF783FD00231A4A1218E5
:102530004B41002B2CDB19490800884602F058FC5F
:10254000174B07001C68002C16D0164B994602E06A
:102550002469002C10D02368002BF9D04B461B684F
:10256000002B01D0A342F3D1200001223100FFF75C
:1025700005FF2469002CEED1002F05D1280003B0FF
:102580000CBC90469946F0BD404602F019FCF5E7B8
:102590000122054B5242CEE740420F007802002054
:1025A0003404002038040020FFFFFF7F70B50400D2
:1025B00002F0D0FB00230100050001222000FFF7FC
:1025C00027FF084B1C68002C06D06368002B05D041
:1025D00098472469002CF8D1280070BD2469002C8C
:1025E000F3D1F9E7340400200A4A1368002B05D11F
:1025F0000CE01A001B691032002B07D09842F8D16A
:10260000002902D103691360016170470029FCD0E1
:102610001060FAE73404002010B500F0C5F801207E
:1026200010BDC046F0B50D1E15DD0E4B0D271A6806
:102630000D4B4519D31859424B410C495B005E5E66
:1026400020210478A64207D093691942FCD10130B9
:102650001460A842F5D1F0BD93691942FCD117600E
:10266000F2E7C046080700200080FCBF04080220F3
:1026700030B50500002926DD002010241B4B013D4C
:102680001A6893691C4219D1013093691C42FCD12C
:1026900013682B548142F4D1154B1B68002B0CD0CE
:1026A00050239363516B183B34320B40110080224E
:1026B00052010A431360002815D030BD0C4B1B6833
:1026C000002BEDD1F7E70A4B1B68002B0BD05022F3
:1026D0003821064B1B689A635A6B343311408022B1
:1026E00052011343196003204042E6E70807002027
:1026F000C4030020064B10B51B68002B06D0002138
:10270000044A12689163044A1068984710BDC04695
:10271000C403002008070020C80300201D4BF0B5AB
:102720001A68C64698461C4B0E00D31859424B41B6
:102730001A4F14331C00050000B53B68002807D071
:10274000002B11D0164B3D601E6004BC9046F0BDBE
:10275000002BF7D0906300212000FDF747FF2000F9
:102760001049FDF787FFEDE720000E49FDF758FF00
:1027700001212000FDF73AFF4346502238211B6813
:102780009A635A6B3433114080225201134319600B
:10279000D8E7C046080700200080FCBFC403002023
:1027A000C8030020F52600100C4B10B51B780C4B0D
:1027B0000C4C1B780C4B022100202360FDF79AFE85
:1027C00002210120FDF796FEE12120684902FEF773
:1027D0002DFF01210548FFF707FF10BD8C4F0010AA
:1027E000904F0010080700200040034050020020D6
:1027F000F0B5C646431E00B50A3314D807231A00A5
:10280000083004000240034205D001339B1ADA432A
:10281000824208D3C41801F027FC354A2700156806
:10282000002D28D10EE001F01FFC314A1368002B67
:1028300006D0002501F020FC280004BC9046F0BD25
:102840000027002407212B4B194247D1802519006E
:10285000AD020020284E4D19706031600726083DFA
:10286000B5431560254AEB1A1360254A6860286055
:1028700013604B600D60002FDBDD214F3E68A642E8
:10288000D7D31D48036804E01A68002A04D0180052
:1028900013005968A142F7D3AB42CAD01D001A6891
:1028A0000835904602600A1B102A05D919194A609A
:1028B00042460A6001602100104A761A10683E60A4
:1028C000864200D2166080221206114300221A604E
:1028D0000C4A5960136801331360ABE7D81D884375
:1028E000802189028C4663441D1A01000300B0E771
:1028F000600400200C070020BC0702208C07022087
:10290000800702209807022070B5002807D00838F9
:1029100043680400002B02DA0268002A00D070BD70
:102920005B005B084360050001F09EFB154A61688F
:1029300013685B181360144B1A001B689C42FBD889
:1029400050681618B44218D0681883420AD02B6019
:10295000AA4200D015600D4A13680133136001F0DC
:102960008BFBDCE70A4800688342F0D058681B689C
:102970008446614469602B60EAE7091815005160DC
:10298000E2E7C04680070220BC0702209C07022025
:10299000600400207047C0460000000000000000F6
:1029A0000B4A13681868203080F30988022080F3EE
:1029B0001488BFF36F8F3FBCAE4608BC04BC62B640
:1029C0001847C046C046C046C046C046C046C0467E
:1029D000540400200000000000000000000000007F
:1029E000EFF30980164B1A6820381060F0C0444697
:1029F0004D4656465F46F0C00D221207146E556EC6
:102A0000566F176F3038F0C008B572B601F056FC3B
:102A100062B60CBC116808681030F0C8A046A94620
:102A2000B246BB4680F309880D2212073038F0C841
:102A30001466556656671767F0C81847C046C04603
:102A400054040020D02310B51B061A6D82B0D207A3
:102A500004D501219A6D1A6D1142FBD1D023FF22BA
:102A60001B061A650023114A01931168EFF31084C5
:102A700072B60B68002BFCD0BFF35F8F00230C48AD
:102A8000126801680360BFF35F8F136084F31088DE
:102A9000084B01AA186800F0DDFA019B002B03D057
:102AA0008022054B52051A6002B010BD5004002070
:102AB000140702207C07022004ED00E010B5FFF7A8
:102AC000E9F8C04610B58024031F64041C60043B71
:102AD00019600349043B1960143B40381A6010BD6B
:102AE000BD2A00108022044B52051A60BFF34F8F9D
:102AF000BFF36F8F7047C04604ED00E072B6044A22
:102B0000136801331360BFF34F8FBFF36F8F7047AC
:102B100010070220094A1368013B1360002B0CD1F7
:102B200007490A68002A07D00B6006490968BFF305
:102B30005F8F136081F3108862B670471007022020
:102B4000EC0600200C070220EFF3108072B67047ED
:102B500080F310887047C04610B5FFF7F5FF0400FA
:102B600001F09AFB002803D08022034B52051A6023
:102B70002000FFF7EDFF10BD04ED00E0002310B5CD
:102B8000084A094C052023601360FEF77BFFFA21F9
:102B90008900FFF7E1F8054B01381860072323602F
:102BA00010BDC04618E000E010E000E014E000E0D6
:102BB000FF22204B1204196810B50A431A60FF2245
:102BC0000220196812060A431A601B49404202F0AB
:102BD0009DF801201949404202F098F80520184953
:102BE000404202F093F8FFF7C9FF0022154B1A602C
:102BF000D0231B06144A1C681470FF221A651A6D34
:102C0000D20704D501219A6D1A6D1142FBD10F3400
:102C1000FF212000FDF708FE20000C49FDF700FD14
:102C200001212000FDF7E2FCFFF7BAFE01F046FBB0
:102C3000FFF730F820ED00E0E1290010592B0010DB
:102C4000952900101007022068020020452A001074
:102C5000D02310B51B061868074B1B78834200D0A1
:102C600010BDEFF30583002B02D05B00C018F7E71F
:102C700001F06AFDF4E7C046680200200A002B4913
:102C800003688C46022130B563449B10FF319940A4
:102C9000274B83B01C78D0231B061B68090A9C4273
:102CA0001FD040BF234D03682C68A34234D0236853
:102CB000002BFCD0BFF35F8F1F4B1C6821431960B2
:102CC0002B68BFF35F8F002119600368D0200021BB
:102CD00000064165BFF35F8F196082F3108803B06F
:102CE00030BD40BF0368BFF35F8F0020186082F3E0
:102CF0001088EFF30583DBB2002B12D00F4B01904D
:102D000001AA186800F0A6F9019B002BE7D08022E9
:102D10000B4B52051A60E2E7074804682143016043
:102D2000D4E7064B186800F04DF9D8E700FFFF2FF5
:102D30006802002050040020140702207C070220B3
:102D400004ED00E0F0B5CE46474680B51D00344B9B
:102D500014001A78D0231B061B688146884683B06E
:102D60009A420FD00368BFF35F8F00221A6081F38D
:102D7000108820002900FEF787F803B00CBC9046AD
:102D80009946F0BDFEF754F922002B000127121AD4
:102D90008B41244E7F42B6185F41002F20DC1BD0B0
:102DA0004B461B68BFF35F8F00221A6088F31088C0
:102DB0001D4B5A6A954205D89B6A0120A342DCD27A
:102DC0009542DAD18022194B52051A60BFF34F8F1A
:102DD000BFF36F8F0020D0E7FA239B009E42DFD322
:102DE000FA220023300039009200FEF7DBFF031EB9
:102DF000D6D04A46404612680D490A600D4908601F
:102E00000D498C46022162449210FF3191400B4AD9
:102E1000090A106800930122002300F077F8C7E741
:102E20006802002018FCFFFF0040054004ED00E0B0
:102E3000EC0600200C07022000FFFF2F7C07022079
:102E400010B5FDF7C7FB054B9C46054B6044800061
:102E5000186000F04FF8034B186010BD40000034BC
:102E6000500400207C070220F8B5DE4657464E4647
:102E70004546E0B505000C00070001F0F5F82968AB
:102E80002E6921430C372960B7422AD000239B4684
:102E90008023DB049A4680235B04994680239B04AD
:102EA00098460EE019420AD04C46224202D05A46B9
:102EB0001A4393464346194301F0AEFB2968B742D3
:102EC0000DD0300054460268766813021B0A224275
:102ED000E8D00C001C40A342E6D0B742F1D15B46DB
:102EE0009943296001F0C8F83CBC90469946A24637
:102EF000AB46F8BD10B51C20FFF77AFC041E03D0CA
:102F0000002308C000F0B0F8200010BDF0B5C646A0
:102F1000060000B50D0090461F0001F0A5F83468CA
:102F2000002F0AD125420CD04346002B0CD02300A1
:102F3000AB43336001F0A0F808E02B0023409D4232
:102F4000F2D0069B002B05D101F096F8200004BCBE
:102F50009046F0BD4346002B16D180210023C904C2
:102F6000002F00D11900069A2943301D01F028FADC
:102F700001F082F800281CD001F0A8FC04008301B5
:102F800007D52402240AE1E7A0218023C9045B04B9
:102F9000E6E7FFF7B3FD3468002F0DD12C4205D0D2
:102FA0004346002B02D02300AB433360FFF7B2FD52
:102FB000E7E7FFF797FDDFE723002B409D42F5D1C0
:102FC000EEE7C046F8B5DE4657464E464546E0B504
:102FD00005000F00060001F047F829682C69394305
:102FE0000C362960A6422AD0002398468023DB04B1
:102FF0009B4680235B049A4680239B0499460EE0FF
:1030000019420AD057463A4202D042461A439046E5
:103010004B46194301F000FB2968A6420DD0200061
:103020005F460268646813021B0A3A42E8D00F0048
:103030001F409F42E6D0A642F1D143469943296002
:1030400001F01AF828683CBC90469946A246AB4667
:10305000F8BDC04610B513000A000100014801F098
:1030600041FE10BD692E00100300012208334360A9
:10307000C360036100235242826003607047C04610
:10308000002303617047C046030030B50C68083365
:10309000621C0DD01A005B681D68A542FAD94B600E
:1030A000996003688A60013351600861036030BD34
:1030B00002695368F3E7C0460369416882688A6021
:1030C00051605968814206D0002202611A68013AB3
:1030D0001A60186870475A60F6E7C046F0B5DE46D9
:1030E0004E4657464546E0B585B00600FFF706FD5B
:1030F0004523F45C64B2002C21DD213B9946213349
:103100009B46B14409E0AB6BEA6B0396934245D30F
:10311000013CE3B264B2002B11D0B56C002DF2D1AA
:10312000736A002B0BD0484601F00AFA0028EFD052
:1031300001F004FB013CE3B264B2002BEDD1452366
:10314000FF22F254FFF7E6FCFFF7D8FC4423F45CBF
:1031500064B2002C16DD3500103504E0013CE2B20B
:1031600064B2002A0ED03369002B0BD0280001F086
:10317000E7F90028F2D0013C01F0E0FAE2B264B2D3
:10318000002AF0D14423FF22F254FFF7C3FC05B01C
:103190003CBC90469946A246AB46F0BD5B462A6CC5
:1031A000EF5CAB6B7FB29846002A13D12B6801937A
:1031B000002B30D000239A4643460133AB637B1C7F
:1031C00017D16B6A002B1DD15346002BA0D001F004
:1031D000B5FAAFE7686803A9FFF7C2F82A6C6B6815
:1031E0009446AA6863446B609342E3D32B686B6098
:1031F000E0E701F04BF8B842E6D95B4601377FB211
:10320000EF54E1E72800243001F09AF90028DBD0E0
:1032100001F094FA8EE7A86801F0E6FA019B824675
:10322000AB60C9E7F0B5C64600B5846C82B0A36B4D
:10323000E26B00250190934204D3280002B004BC45
:103240009046F0BD4523226CE65CA76B76B2002A5F
:103250001CD0606801A9FFF783F8226C636894466C
:10326000A26863446360934214D3236863600137A8
:10327000A763731C13D1636A002BDED020002430B7
:1032800001F05EF90028D8D00125D6E723689846DA
:10329000002B0DD001370025A763731CEBD000F085
:1032A000F5FF8642C9D24523013676B2E654C4E71B
:1032B000A06801F099FA43460500A360D7E7C0462D
:1032C000F8B505000E001700002846D00B0C020CC4
:1032D000002B34D1331C002A35D130006843030061
:1032E00055333AD85430FFF783FA041E35D0030023
:1032F000002E00D054332360E5632664FFF7FEFB05
:10330000216CE36B22684B43D0185B1AD3186260C0
:10331000E3600025FF234422A0602000A563A3549E
:103320000132A3541030FFF79FFE20002430FFF736
:103330009BFEFFF7EFFB5023E754A5640EE0002A45
:103340000BD11A1C031CB0B2A9B2414398B293B27C
:103350004343090C5B181B0CBFD000242000F8BDB0
:10336000F0B5CE46474604001E00002380B585B068
:10337000994601928846FFF7C1FBA36BE26B0027D9
:103380004425934237D3022E72D0019B002B00D1EB
:103390008AE0002F68D0FFF7BDFB00F065FEFFF765
:1033A000ADFB625D52B2531C01D14B4663554523C0
:1033B000E25C52B2013201D14A46E254FFF7AAFB65
:1033C00001A902A801F080F9002800D074E0FFF7FD
:1033D00095FBA36BE26B934234D0FFF79BFB20007D
:1033E000FFF77CFE00F048FE0127FFF787FBA36B89
:1033F000E26B9342C7D2226CA76BA56B002A3CD02C
:103400004146002E00D084E06068FEF7A9FF226CE0
:1034100063689446A26863446360934201D323685F
:103420006360A36C0135A563002B34D1636A002B64
:1034300036D02000243001F083F8002830D0FFF788
:1034400051FB2DE0FFF766FB20000199103000F0E2
:103450006BFF2000FFF742FE00F00EFE0028C3D1F4
:10346000FFF740FB0127C0E702A801F021F992E72E
:10347000226CA76BA56B002A25D1236800209846F3
:10348000002B40D0A36C0135A563002B35D0022E54
:1034900001D1002F04D12000FFF7C4FE0028CED1B7
:1034A000FFF738FB012002E0FFF734FB002005B0F6
:1034B0000CBC90469946F0BD2000FFF70FFE00F0CF
:1034C000DBFD0020F3E74146E068FEF749FFE168D5
:1034D000236C5A42CB1A2168E3608B4205D2A36861
:1034E0009C466244E260022E9BD1002D00D1013542
:1034F000A36CA563002BCCD198E7636A002B98D10D
:1035000000289CD1CCE7A06801F06EF94346A36087
:10351000B8E7E068FEF724FFE168236C5A42CB1A53
:103520002168E3608B42DED2D9E7C046F8B54E464B
:10353000DE46574645460400E0B591461D000F00A3
:10354000FFF702FBA36BE26B0600934235D3022D1B
:103550000AD000243000FFF7FBFA20003CBC904664
:103560009946A246AB46F8BD4523E35C226C5BB2AC
:103570009846A36B9B46A36B9A46002A44D12768C2
:10358000002F65D053460133A3634346013330D146
:10359000A36C002B4DD0022D02D15B46002B0AD12B
:1035A0002000FFF73FFE002805D04B46002B02D03D
:1035B00001234A4613600124CCE74523E35C226CD7
:1035C0005BB29846A36B9B46A36B9A46002AD6D063
:1035D000002D19D139006068FEF7C2FE226C6368C5
:1035E0009446A268634463609342CBD323686360CC
:1035F000C8E700F04BFE8045DDD24346452201334B
:103600005BB2A3540124A5E73900E068FEF7A8FEE9
:10361000E168236C5A42CB1A2168E3608B4203D2E3
:10362000A3689C466244E2605346022D0CD00133ED
:10363000AAE7636A002BBED02000243000F080FF90
:103640000028B2D1012485E7002B9DD101339BE7EF
:10365000A06801F0C9F85346A760013394E7C0465B
:10366000F0B54746CE46040080B585B08846019245
:10367000FFF744FAA76B002F5FD1019B002B3BD0D3
:1036800002A801F015F80023442699464525FFF7C6
:1036900041FA00F0E9FCFFF731FAA35D5BB20133B8
:1036A00001D14B46A355635D5BB2013301D14B465B
:1036B0006355FFF72FFA01A902A801F005F80028C9
:1036C00022D1FFF71BFAA36B002B2AD1FFF722FAB6
:1036D00020000199243000F027FE2000FFF7FEFCB7
:1036E00000F0CAFC00283DD0FFF708FAA76B002FB6
:1036F00023D1019B002BCAD1FFF70CFA002005B0A3
:103700000CBC90469946F0BD2000FFF7E7FC00F0A6
:10371000B3FCFFF7F3F9A36B002BEDD0FFF7FAF939
:10372000E2E7FFF7F7F92000FFF7D8FC00F0A4FC70
:10373000FFF7E4F9A76B002FDBD0226C002A08D03A
:10374000E3689918A368E16099420ED24046FEF7FB
:1037500007FE013FA7632369002B09D1FFF7DAF9C0
:103760000120CCE7FFF7BEF9BEE72168E160EDE795
:103770002000103000F0E4FE0028EFD0FFF7B2F98F
:10378000ECE7C046F0B5C6460023040000B584B09F
:1037900098460191FFF7B2F9A36B00260027442554
:1037A000002B3CD1019B002B00D178E0002F50D0A2
:1037B000FFF7B0F900F058FCFFF7A0F9635D5BB2CA
:1037C000013301D1434663554522A35C5BB201330B
:1037D00001D14346A354FFF79DF901A902A800F0C7
:1037E00073FF002827D1FFF789F9A36B002B34D191
:1037F000FFF790F92368002B55D020000199243061
:1038000000F092FD2000FFF769FC00F035FC002875
:1038100035D00127FFF772F9A36B002BC2D0013B13
:10382000A3632368002B50D02369002B44D1FFF7FA
:1038300071F901261EE02000FFF750FC00F01CFC8F
:10384000FFF75CF9A36B002B10D0FFF763F901279A
:10385000E0E702A800F02CFFAAE7FFF75BF92000E1
:10386000FFF73CFC012700F007FCD3E7FFF752F914
:10387000002E08D1300004B004BC9046F0BDFFF724
:1038800031F90127C6E7FFF739F9616A002903D04A
:103890002021236B1B68C91AA06800F0D7FFFFF72F
:1038A00039F90026E6E7FFF729F9A06800F052FF92
:1038B0000600FFF72FF9A0E72000103000F040FECF
:1038C0000028B4D0FFF70EF9B1E701F00BF8A060C3
:1038D000AAE7C04670B500290ED000260023374D58
:1038E000DA00AC186468844259D0002E05D0013348
:1038F000082BF5D13160706070BDAC58002C4BD0F6
:103900005C1C072BF8D0E200AE187668B04246D0B7
:10391000AE58002E47D09C1C062BEDD0E200AE180E
:103920007668B0423BD0AE58002E3CD0DC1C052B54
:10393000E2D0E200AE187668864230D0AE58002E53
:1039400031D01C1D042BD7D0E200AE187668B042EF
:1039500025D0AE58002E26D05C1D032BCCD0E20023
:10396000AE187668B0421AD0AE58002E1BD09A1D01
:10397000022BC1D0D4002E197668B0420ED02C593B
:10398000002C13D0012BB7D0EB6B984212D0AB6B4D
:10399000002BB1D107233822AE18A8E7D200AE1809
:1039A00031607060A8E72300AE18A0E71300D200D2
:1039B000AE189CE73822AE18F2E7C046080A02208B
:1039C00070B5040016000D00FFF798F84422A35CC0
:1039D0005BB2013301D10023A3544522A35C5BB247
:1039E000013301D10023A354FFF794F8A36B002BFC
:1039F00003D02000FFF772FB70BD200032002900C9
:103A0000243000F03BFDF4E7F0B5C646124B00B59C
:103A10009846124C124E134F15E0FFF76FF84346CD
:103A2000DB68DD68281DFFF747FB3368013B336027
:103A30002368013B2360FFF76DF8286BFEF764FFF6
:103A40002800FEF761FF2368002BE6D13B68012BBD
:103A5000F9D9FFF747F8F6E7D80702201C0702203C
:103A6000180702206C040020F0B5DE4657464E468B
:103A700045465C4BE0B51A6883B0013294461A6043
:103A8000002A64D0584B01931B689C4577D3574B51
:103A9000002798461B68564D1B68002B00D19DE0FF
:103AA000544B62469B4600239946534BBC469A466C
:103AB000009239E0494659611168013911609A6AEA
:103AC000002A0FD0D969186A56688860186A416060
:103AD000190018318E4200D174E04946996211688C
:103AE000013911605246D96A1268914201D9524691
:103AF00011608A0052189200AE187068876898604A
:103B0000DF6087687C6084605E61AB580133AB50D6
:103B10005B461B68DB6A994201D901239C464346F8
:103B20001B681B68002B53D043461B680099DB6859
:103B3000DB685A68914247D35A699868D9681C1D56
:103B4000816048605068A042B4D15160B2E7274B11
:103B50002A4A196810681860116029490A680132F8
:103B60000A601A681268002A24D11F4B1A000193B8
:103B700001235B42136013001B689C4587D21D4BD9
:103B800000279B461A4D5B461B68DA6A93009B1818
:103B90009B00EB58012B00D901271A4B1B68002B07
:103BA00000D00127380003B03CBC90469946A2469D
:103BB000AB46F0BD1B680C4ADB6801921B681360C2
:103BC000130061E7506088E7019B67461A60DAE7F7
:103BD00067460123019A5B421360D4E7054B9B467D
:103BE000F7E7C046EC070220900702205C040020A3
:103BF0006C040020540400202807022064040020E4
:103C000094070220F8070220F8B5CE4647469600F2
:103C100080B5804630000D009946FEF7E9FD071E8D
:103C200000D1CEE07020FEF7E3FD041E00D1CFE00E
:103C300070220021FEF78EFB3200A5213800276399
:103C4000FEF788FB236B043E9C46072366449E4395
:103C5000002D5FD034232A78E2542B78002B56D0E5
:103C600035236A78E2546B78002B50D03623AA783B
:103C7000E254AB78002B4AD03723EA78E254EB7851
:103C8000002B44D038232A79E2542B79002B3ED0E4
:103C900039236A79E2546B79002B38D03A23AA7918
:103CA000E254AB79002B32D03B23EA79E254EB7932
:103CB000002B2CD03C232A7AE2542B7A002B26D0DE
:103CC0003D236A7AE2546B7A002B20D03E23AA7AF5
:103CD000E254AB7A002B1AD03F23EA7AE254EB7A13
:103CE000002B14D040232A7BE2542B7B002B0ED0D8
:103CF00041236A7BE2546B7B002B08D04223AA7BD2
:103D0000E254AB7B002B02D04323EA7BE2544323F3
:103D10000022E254089D1F2D60D8271D3800E5625F
:103D2000E564FFF7ADF920001830FFF7A9F920236B
:103D30005D1B4A46414630002461A5616462FEF77E
:103D4000C1FE099B2060002B00D01C60FEF7D6FE50
:103D5000404A414E1368013313603368002B48D04A
:103D60003E4D2B68002B3BD03D4BE16A98463D4BC6
:103D70001A6801321A603C4B62641A688A4200D2A7
:103D8000196042468B005B189B00D1184A68906806
:103D9000A260E0609068476097604246616141467A
:103DA000D2580132CA50FEF7B5FE2B680125002B10
:103DB00009D03368DA6AE36A9A4204D2FEF792FEC7
:103DC00001E001256D4228000CBC90469946F8BDE3
:103DD00001253800FEF798FD6D42F4E71F259CE7AA
:103DE0003368E16ADB6A8B4200D834601C4B98462A
:103DF000BDE734601368012B04D0194BE16A984683
:103E0000164DB4E7164B98461D00A0239B00434473
:103E1000994628001435FFF727F9A945F9D1134B26
:103E200099461800FFF720F9114D2800FFF71CF9FB
:103E30001048FFF719F91048FFF716F90F48FFF778
:103E400013F94A460E4BE16A1A600E4B1D60034D92
:103E50008DE7C0461807022054040020B80702204E
:103E60006C040020240702202807022054070220A7
:103E700068070220A4070220D8070220C4070220F6
:103E80005C04002064040020F8B58020CE4647463C
:103E9000C00080B5FEF7ACFC051E79D07020FEF79F
:103EA000A7FC041E00D179E070220021FEF752FA2F
:103EB0008022A52128002563D200FEF74BFAFF22BD
:103EC00092009446236B382263441D0007239D43D0
:103ED000524B261D63630023A3540B32A3543000BE
:103EE000E362E364FFF7CCF820001830FFF7C8F86E
:103EF000202300224A49A361280024616462FEF75E
:103F0000E1FD484B20601C60FEF7F8FD464A13684F
:103F100001331360454B98461B68002B4CD0444D31
:103F20002B68002B3ED0E16A424F434B1A680132A6
:103F30001A60424B62641A688A4200D219608B0090
:103F40005B189B00F9184A689068A260E06090686E
:103F500046609660FA5861610132FA50FEF7DAFD68
:103F60002B68002B05D043461B68DA6AE36A9A4245
:103F70002BD300F071FE01280AD172B60122304B1A
:103F800052421A6000222F4B28601A60FEF710FE82
:103F90002D4B1B680CBC90469946F8BD2800FEF7D7
:103FA000B3FCF5E743461B68E16ADB6A8B4201D844
:103FB00043461C601F4FB8E743461C601368012B43
:103FC00006D0E16A1B4F1A4DAFE7FEF78BFDD0E735
:103FD000A023184F9B0099463D00B9442800143592
:103FE000FFF742F84D45F9D1184B99461800FFF7F5
:103FF0003BF8174D2800FFF737F81648FFF734F85D
:104000001548FFF731F81548FFF72EF84A46144BCC
:10401000E16A1A60134B1D60054D86E749444C4523
:10402000093A0010840702201807022054040020D7
:10403000B80702206C040020240702202807022071
:1040400090070220EC0702206C0200205407022097
:1040500068070220A4070220D8070220C407022014
:104060005C04002064040020024A136801331360DA
:104070007047C04620070220F0B5DE464546574649
:104080004E46E0B583B0FEF739FD554D2B68013B38
:104090002B602B68002B63D1524B1B68002B5FD029
:1040A000514B99461B68002B00D196E04F4B504F67
:1040B0009A46504B504E9B4601239C4601974B46D7
:1040C000DB68DB68D969186A9A6A88601C6A616073
:1040D0001900546818318C4200D17CE000219962AB
:1040E0001168013911605A699868D968546881600B
:1040F0004860181D84426CD0116801391160514626
:10410000DA6A09688A4201D951460A609100891821
:1041100089008846741861688F689960DF608F68CD
:10412000786088605C6143464146F35801337350C0
:104130005B461B68DB6A9A421DD96346019A13608D
:104140004B461B68002BBAD12C4B17001A6812681B
:10415000002A1AD01B68DB681A68294B1A6017E01E
:104160000024FEF7D7FC200003B03CBC90469946E3
:10417000A246AB46F0BD4B461B68002B9FD11F4BA0
:10418000019F1A681268002AE4D11D4B013A1A6097
:104190001C4E3468002C15D00123984608E0FFF728
:1041A00063FC002801D043463B60013C002C08D052
:1041B0002B68002BF3D03368013C01333360002CB3
:1041C000F6D134603B68002BCAD0FEF78BFC01248B
:1041D000C7E7516090E7506080E7054FD8E7C046D9
:1041E0002007022018070220A40702202807022027
:1041F000F8070220540400206C0400205C04002016
:1042000090070220A007022070B5041E1DD0164A98
:10421000136801331360154B00211E686D23144D84
:10422000A4192A682868D1540430FEF745FF2B688A
:104230005C60A6420CD90F4B186829680431FEF760
:1042400023FFFFF719FF002801D1FEF74BFC70BDDB
:10425000094B186829680431FEF716FF074B1A68E6
:104260009442EED21C60ECE720070220EC0702200B
:1042700054040020640400205C0400209007022005
:10428000014B18687047C046EC070220014B1868C4
:104290007047C04618070220064B10B51B68002B5C
:1042A00002D1FFF7E1FB10BD034A00201368013380
:1042B0001360F8E720070220A0070220154B30B555
:1042C0001B68002B03D00122134B1A6030BD124A29
:1042D000124C13602368124800E0013B9900CA1891
:1042E00092008258002AF8D0C918890045186A68D7
:1042F0000831526841186A608A4204D0D168094A7C
:1043000011602360E2E7EA68D1686A60054A1160DB
:104310002360DBE720070220F8070220280702209D
:104320006C0400205404002070B51F4D0C00296857
:104330001831FEF7A9FE1D4B00211E686D232A6867
:104340002868D1540430FEF7B7FE631C17D02B68E1
:10435000A4195C60A64206D9154B18682968043177
:10436000FEF792FE70BD134B186829680431FEF702
:104370008BFE114B1A689442F4D21C60F2E70F4B8B
:1043800029685A6890688A602968C86029689068B6
:10439000043141602968043191602A6853611A68C8
:1043A00001321A60DEE7C04654040020EC07022008
:1043B000640400205C04002090070220C40702204F
:1043C000802370B5274C15001B0622680B439361B0
:1043D000436822689968D3612268116222689968EB
:1043E00018324A602268002118329A602368986265
:1043F0000368013303601C4B1E686D23226820682C
:10440000D1540430FEF758FE6B1C17D02368AD1949
:104410005D60AE4206D9154B186821680431FEF77D
:1044200033FE70BD124B186821680431FEF72CFE74
:10443000104B1A689542F4D21D60F2E70E4B2168CA
:104440005A6890688A602168C86021689068043161
:104450004160216804319160226853611A68013219
:104460001A60DEE754040020EC07022064040020F8
:104470005C04002090070220C407022070B52A4C7B
:1044800043680D0021689E68CB6121680E62216837
:104490009E681831716021681831996023689862AC
:1044A000036801330360214B002A1CD01B680021E4
:1044B0006D2322682068D1540430FEF7FDFD1C4BAB
:1044C00021685A6890688A602168C860216890688D
:1044D00004314160216804319160226853611A6897
:1044E00001321A6070BD1E686D2321682068CA54AD
:1044F0000430FEF7E1FD2368AD195D60AE420BD8D4
:104500000C4B186821680431FEF7BEFD0A4B1A688F
:104510009542E7D21D60E5E7084B18682168043131
:10452000FEF7B2FDDEE7C04654040020EC0702208F
:10453000C40702205C0400209007022064040020CD
:10454000C368F0B5DB68D869196A9A6A8160486007
:10455000180054681830844245D0002199621168CF
:1045600001391160264A1268002A2CD19968D8684E
:104570005A698860D8681D1D41605168A94234D0CD
:104580001168013911601F4AD96A1068814228D820
:104590008A001D4C52189200A618706887689860AF
:1045A000DF6087687D6085605E61A3580133A3503A
:1045B000164B00201B68DB6A8B4203D20122144B8E
:1045C00001301A60F0BD134A51688C68D9611C62D1
:1045D0008C686060886011689A6201311160D96AE4
:1045E000E6E71160D4E75160B7E711685060013920
:1045F0001160044AD96A10688142C9D9F1E7C046FE
:1046000020070220280702206C0400205404002008
:10461000F8070220A407022080231B06F0B50B43F5
:104620008468416802690360C3688C608468616063
:104630005168814230D0002101611168D868013988
:10464000116099685A698860D8681D1D4160516879
:10465000A94223D0116801391160114AD96A106842
:10466000814200D911608A000E4C52189200A6189F
:10467000706887689860DF6087687D6085605E61CC
:10468000A3580133A350084B1B68DB6A994202D937
:104690000122064B1A60F0BD5460CCE75060D9E7A8
:1046A000280702206C04002054040020F807022090
:1046B000034B1B680360034B1B6843607047C04695
:1046C00094070220EC070220F8B50E000700FEF761
:1046D00015FA6D23164C174A21681568ED5C002DFC
:1046E00007D0002101241268D154FEF713FA2000EC
:1046F000F8BD33685A1C19D00F487A68844605689B
:104700003868A84205D08A4203D8002301243360C8
:10471000EBE78D1AAB42F8D95B1A9B1833606346FE
:104720001B683B60236800247B60DEE70024DCE735
:10473000EC07022054040020940702200122014BC0
:104740001A607047F8070220014B18687047C0468E
:1047500054040020F8B5041E21D0204DC26A2B68F5
:10476000DB6A9A4214D28369002B04DB2B68D96A76
:1047700020235B1A836193009B18194E9B0062698A
:10478000F3189A420DD02B680120DB6AE36205E042
:104790002B68C06CDB6A984280414042F8BD002023
:1047A000FCE7271D3800FEF787FC2B68DA6A0D4B03
:1047B000E26219688A4200D91A6093009B189B0034
:1047C000F1184A689068A260E0609068476097605E
:1047D000F258616101320120F250DFE754040020F9
:1047E0006C0400202807022070B5041E08D0036D59
:1047F000C26AC16C013B03658A4201D0002B01D023
:10480000002070BD051D2800FEF756FC2023E26C39
:104810009B1AA3610B4BE26219688A4200D91A60A5
:10482000930009499B189B00C81842689668A260CB
:10483000E660966875609560CA5860610132012033
:10484000CA50DEE7280702206C04002070B5041E61
:1048500008D0C36C8B4206D3E26A9A4202D0216D23
:10486000012905D070BDE26A0B009A42F7D1F9E741
:10487000A169E362002902DB2021CB1AA361930026
:104880009A18104D92006369AA189342EAD1261D26
:104890003000FEF711FC0C4BE26A19688A4200D91D
:1048A0001A6093009B189B00E9184A689068A26000
:1048B000E060906846609660EA5861610132EA50B3
:1048C000D0E7C0466C04002028070220044B1A6879
:1048D000196890691A682023C96A5B1A9361704746
:1048E00054040020034B1868002802D0036D0133E4
:1048F0000365704754040020F0B5CF4BDE465746A1
:104900004E4645469B46CD4BE0B59946CC4B89B0CB
:104910009A465B461B681C68002C00D191E0DB685E
:104920001C68FFF7A1FBFFF7ABFC4B461B680500BB
:10493000834200D996E04B461860844200D82BE1B0
:104940000022C04B611B1B6818000193FFF738F869
:10495000FFF792FB00285BD02826BA4B00221B6889
:1049600004A918000193FEF77BFE0028D1D0049B18
:104970000193002B57DB069D6B69002B02D0281D8D
:10498000FEF79AFBFFF77CFC4B461B6801909842B0
:1049900000D2B1E04B46019A1A60049B092BDCD887
:1049A000A94A9B00D3589F460123A85D059903435C
:1049B000AB55AA69019C8B186B602D61A34200D98D
:1049C000DFE0611A8A4218D8410700D51BE10123B4
:1049D0009843A85528002B6A9847BEE70122AB5D93
:1049E00001991343AB55059B2D615A18AB616A6061
:1049F0008A4200D9CAE0002BAFD05346291D18685F
:104A0000FEF742FBA9E70122AB5D9343AB55A4E758
:104A1000FEF768F8A0E7AB5D9A0700D4E9E0012251
:104A20009343AB5599E7079B0193069B019902932A
:104A3000059B029803939847049B0193002B8CDB02
:104A400099E7FFF711FBFFF71BFC4B461B680500BE
:104A5000984207D34B461D6053461B681A68534261
:104A60005A416EE75B461B681A68002A39D0A8468F
:104A70000BE0012293432732A354236A2000984776
:104A80005B461B681A68002A2AD0DB68DC681F684E
:104A9000251D2800FEF710FB28230422E35C1A42A0
:104AA000E7D0A3692461FE18FF4366609F420AD3E2
:104AB0003700FF43236A20009847A3692461F61852
:104AC0006660BB42F4D9534629001868FEF7DCFA49
:104AD000236A200098475B461B681A68002AD4D1D5
:104AE000454651465A4609681160524613604B4686
:104AF0001D60FFF7C1FA2FE75B461B681A68002AA2
:104B000038D002950AE001229343A355236A20007E
:104B100098475B461B681A68002A2AD0DB68DC6865
:104B20001F68231D18009846FEF7C6FA0422A35DED
:104B30001A42E8D0A3692461DD19FF4365609F42F2
:104B40000AD32F00FF43236A20009847A3692461FA
:104B5000ED186560BB42F4D9534641461868FEF72C
:104B600093FA236A200098475B461B681A68002A5C
:104B7000D4D1029D51465A460968116052461360CD
:104B800008E7A14202D9994200D81DE75B46291DDA
:104B90001868FEF779FAE0E6FFF76EFA5B461B68E5
:104BA000DB68DE68331D18009846FEF785FA282278
:104BB000B35C59070DD401218B43B3543000336AE1
:104BC0009847C9E62C1BA34217D83000336A984790
:104BD0003C00B3693661E7187760AF42F2D9AC4266
:104BE00001D9BC42F1D95B4641461868FEF74CFA40
:104BF000E4E72800FDF788FEAFE653464146186813
:104C0000FEF742FADAE7019F07E0FB1A9A421DD845
:104C10002B6A280098472300AA69D4186C602D617C
:104C2000A742F2D29F4201D2A342F1D95B46291D8D
:104C30001868FEF729FACDE65804002088070220FC
:104C400068040020F0070220384F00105346291D49
:104C50001868FEF719FABDE670B582B0FDF74EFF91
:104C6000174C2368002B12D0FDF754FF2368002057
:104C7000002B0AD0134B802201931F23124900936B
:104C800012480023D200FEF7BFFF02B070BD104EE5
:104C90003000FEF7E9F90F4D2800FEF7E5F90E4B5D
:104CA00000221E600D4B10210A201D60FEF708FB3C
:104CB00020600028D8D00A49FEF70CFED4E7C04691
:104CC000F0070220F4070220684F0010F948001096
:104CD0002C0702204007022058040020680400200E
:104CE000604F001010B514001A00022384B05B421C
:104CF0000093054B019002911868694600230394C4
:104D0000FEF714FC04B010BDF0070220F8B50D004A
:104D1000EFF3108772B60C4B10309B6884001E595D
:104D2000B14205D0094B9E420BD3094B9E4208D29B
:104D3000054B9B681D51BFF35F8F87F310883000D0
:104D4000F8BDFCF7ADFFF3E700ED00E0C001001097
:104D5000CC01001010B5830727D00378002B26D094
:104D60000300032102E01A78002A1CD001330B4211
:104D7000F9D119680F4A104C8A188A4322420FD180
:104D8000043319680B4A8A188A43224208D1043333
:104D90001968084A8A188A432242F1D000E0013398
:104DA0001A78002AFBD1181A10BD0300E1E7002091
:104DB000FAE7C046FFFEFEFE80808080F8B5C04660
:104DC00001B40248844601BC604700BF5D01002079
:104DD00001B40248844601BC604700BF7D01002049
:104DE00001B40248844601BC604700BF7D01002039
:104DF00001B40248844601BC604700BFC1000020E6
:104E00005461736B206C656420526564000000007F
:104E10005461736B206C656420426C756500000002
:104E20005461736B206C656420477265656E000089
:104E3000486172647761726520616C61726D2025D2
:104E40006420616C726561647920636C61696D6571
:104E5000640000000A2A2A2A2050414E4943202A91
:104E60002A2A0A000A0000006E6F742073757070A1
:104E70006F7274656400000048617264206173732E
:104E80006572740052656C6561736500626F6F7462
:104E9000325F77323571303830000000312E352ED8
:104EA000310000007069636F000000005250323022
:104EB00034302D6672656552544F532D426C696EC5
:104EC0006B0000004D6179203132203230323400E5
:104ED00006005250BBFF3CB6A44E001006005250D4
:104EE000E182887F8C4E001006005250D3F075424C
:104EF000844E00100D0A0000554152542073746412
:104F0000696E000055415254207374646F757400CB
:104F10005541525420737464696E202F2073746459
:104F20006F7574000600525053B4F4A1104F001076
:104F300008005250920000005A490010A849001081
:104F4000A8490010064A0010DC490010164A00105B
:104F5000A8490010A8490010064A0010DC490010BA
:104F6000546D725100000000546D7220537663003E
:104F7000AC020010A002001094020010D04E0010ED
:104F800088020010DC4E0010E84E0010244F001084
:044F9000304F00108E
:104F9400F0B5C6461E0000B5040015000368EFF323
:104FA400108872B61A68002AFCD0BFF35F8F676856
:104FB4007B1C0ED02368BFF35F8F00221A6088F336
:104FC400108800F04DF8B8420FD1002004BC904680
:104FD400F0BD00F045F823686060BFF35F8F0022E6
:104FE4001A6088F310880120F0E700F039F8070010
:104FF40006E02A003300200000F03AF80028E4D14B
:105004002368EFF3108172B61A68002AFCD0BFF34C
:105014005F8F63680133ECD123686760BFF35F8FF0
:1050240000221A6081F310880120CFE710B50268CE
:10503400EFF3108172B61368002BFCD0BFF35F8FBF
:1050440001235B42436000F003F810BD7047C04683
:1050540001B40248844601BC604700BF7D2C0010A7
:1050640001B40248844601BC604700BF512C0010C3
:1050740001B40248844601BC604700BF452D0010BE
:10508400100000000000000000000100000000000B
:10509400000000000000020000000000000000000A
:1050A4000000030000000000000000000000FF00FA
:1050B4000000000001B5486801318E460047704683
:1050C40009380149884701BD510800101402002025
:1050D4000000000098020020F403002000000000FB
:1050E4000000000004040020000000000000000094
:1050F400100000000000000000000000000000009C
:10510400503300004C33000054330000523300008D
:105114004D5300004D43000053340000433400005D
:105124002526001000000000712600101D27001025
:105134000000000000010000FF0000001F0000004C
:10514400000000000000000000000000000000005B
:1051540045230010ED1C0010C9210010B5220010D9
:0851640031030010412E001080
:04000005100001E9FD
:00000001FF
