:020000041000EA
:1000000000B5324B212058609868022188439860DF
:10001000D860186158612E4B002199600221596106
:100020000121F02299502B49196001219960352056
:1000300000F044F80222904214D00621196600F024
:1000400034F8196E01211966002018661A6600F04E
:100050002CF8196E196E196E052000F02FF8012189
:100060000842F9D1002199601B49196000215960AB
:100070001A491B48016001219960EB211966A021F2
:10008000196600F012F800219960164914480160C1
:100090000121996001BC002800D000471248134993
:1000A000086003C880F30888084703B5996A0420EC
:1000B0000142FBD001200142F8D103BD02B5186610
:1000C0001866FFF7F2FF186E186E02BD00000240BE
:1000D000000000180000070000035F00212200005C
:1000E000F4000018222000A00001001008ED00E03C
:1000F00000000000000000000000000074B24E7A12
:1001000000200420F7010010C3010010C5010010F9
:10011000C1010010C1010010C1010010C101001097
:10012000C1010010C1010010C1010010C701001081
:10013000C1010010C1010010C9010010CB01001065
:10014000CD010010CD010010CD010010CD01001037
:10015000CD010010CD010010CD010010CD01001027
:10016000CD010010CD010010CD010010CD01001017
:10017000CD010010CD010010CD010010CD01001007
:10018000CD010010CD010010CD010010CD010010F7
:10019000CD010010CD010010CD010010CD010010E7
:1001A000CD010010CD010010CD010010CD010010D7
:1001B000CD010010CD010010CD010010CD010010C7
:1001C00000BE00BE00BE00BE00BE00BEEFF3058054
:1001D000103800BEF2EB88711489001038890010C5
:1001E0003402001090A31AE700201F49086006C8D7
:1001F00081F3088810471D48006800282FD10DA4FE
:100200000ECC002902D000F012F8F9E71849194A7B
:10021000002000E001C19142FCD1174988471749ED
:1002200088471749884700BEFDE701C901C29A42C5
:10023000FBD3704738890010C0000020180300204D
:10024000908B00100000042000000420908B001010
:10025000001004200010042000000000704709482E
:1002600003F030F80047000008ED00E0000000D087
:1002700018030020C40A02204920001009040010BD
:10028000052000105756000006005250ABB36053D3
:10029000007A001006005250861C0302107A0010EB
:1002A000060052505422A29D2C7A00100500525094
:1002B000DE65F468908B0010F8B5C0460448054B25
:1002C00010B5834203D0044B002B00D0984710BDDB
:1002D000180300201803002000000000064807490A
:1002E000091A8B10C90FC91810B5491003D0044B57
:1002F000002B00D0984710BD1803002018030020E1
:100300000000000010B5074C2378002B09D1FFF73F
:10031000D5FF054B002B02D0044800E000BF0123AD
:10032000237010BD1804002000000000886B00102E
:10033000054B10B5002B03D00449054800E000BF71
:10034000FFF7CCFF10BDC046000000001C040020D9
:10035000886B0010F0B583B0002301930D2000F0EE
:1003600097F8D0231B06802292015A62D0263606C7
:100370008027BF01B761002301930C4D002201A922
:10038000286805F0BBF8FA246400200005F0A0FE00
:1003900077610123019328680023002201A905F059
:1003A000ADF8200005F094FEE0E7C04634080220D6
:1003B00000B583B00F2000F06BF8D0231B0680221D
:1003C00012025A6207E0D0231B06802212025A61F1
:1003D0000A4803F0D5FF0122094B1868524201A9CF
:1003E00005F0F2F9019B012BEDD0D0231B068022F2
:1003F00012029A61034803F0C3FFECE7946B00100C
:1004000034080220886B001070B582B003F0F4FF4E
:1004100000220421012005F029F80C4B18608024EB
:10042000640000260196012500950023220008495A
:10043000084805F051FC019600950023220006496A
:10044000064805F049FC05F08FFCFEE73408022061
:100450009C6B001055030010AC6B0010B103001032
:1004600010B58300084A944663441C6840226240E9
:10047000C02414408022520113431C60C000034B6F
:100480009C466044416010BD04C0014000400140F2
:1004900010B501238340D022120693629361052197
:1004A000FFF7DEFF10BD0000034B1B680220184061
:1004B000431E9841C0B2704700C00640EFF3108061
:1004C00072B6034B1B68002BFBD0BFF35F8F7047E6
:1004D0002C0100D0BFF35F8F024B00221A6080F323
:1004E000108870472C0100D0F8B506000C001500EC
:1004F000FFF7E4FFE308F718F15C0722224001232D
:1005000093400B4205D1DBB20B433B70FFF7E2FF98
:10051000F8BD2100280001F013FE000000231F2B6E
:1005200008D8054A9A189200BFF35F8F0021116026
:100530000133F4E77047C04640000034054A1078A4
:10054000431CDBB21370172B02D9130010221A7050
:100550007047C04638020020074B9B68103080006F
:100560001950BFF35F8FBFF35F8F044B00211960F9
:1005700082F310887047C04600ED00E0240100D0EF
:1005800010B5091A0B1F0A4A94466144094A914260
:1005900008D8DA0706D45B105B055B0D06481843E4
:1005A00080B210BD054B064AA321064801F02EFD7E
:1005B000FC070000FE0F000000E0FFFFB86B00101A
:1005C000DC6D0010E86B001010B5091A04394C08F6
:1005D000090B08D14905490D064A11430180064B14
:1005E0002343438010BD054B054AAB21054801F06C
:1005F0000DFDC04600F0FFFF00F8FFFF246C001067
:10060000E86D0010E86B001001238340034A106876
:100610001840431E9841C0B27047C04600E100E058
:10062000002904D0034B1860034B18607047034B3C
:100630001860FBE780E200E000E100E080E100E01C
:1006400010B5012383401800FFF7EAFF10BD00003A
:10065000024B9B6810308000C058704700ED00E0EE
:1006600070B504000D00EFF3108672B60C4B1B68DA
:10067000002BFBD0BFF35F8F2000FFF7E9FF094B92
:10068000984201D0A84205D1320029002000FFF78E
:1006900063FF70BD044B054A8621054801F0B6FC96
:1006A000240100D0CD010010346C0010C06D00108A
:1006B000E86B0010F0B5CE46474680B583B0060023
:1006C0000D00EFF3108872B6564B1B68002BFBD061
:1006D000BFF35F8F544B9A6834001034A300D7588F
:1006E000524B9F4207D0AF4200D198E00197504B48
:1006F000FB1A2F2B09D9424639003000FFF72CFF97
:1007000003B00CBC90469946F0BD3000FFF77CFF6B
:10071000814600213000FFF793FFBFF35F8FEFF3B7
:100720000581002901D08C4211D10123019C9C43F9
:100730000022A368AB4212D00622A256002A0DDB8B
:1007400053009B189B002200394CE418F1E7362136
:10075000384B394AFF31394801F058FC2200AB428E
:1007600056D106256557002D38DB6B005B199A00C2
:100770002F4B9B189A68A260DA79E27106229A568A
:10078000A2719B795BB2002B0FDA2D48A0806B0021
:100790005B199B00264AD3182A4A11789971157063
:1007A00049463000FFF74CFFA5E7201D6B005B19A1
:1007B0009B001F4A9B181A1D9B88D90A1C2907D128
:1007C00059054915023149005118FFF7D9FEDDE7F7
:1007D0001D4B1E4AB121194801F018FC002912D105
:1007E000002A0ED0FF239371194B9380154A13787A
:1007F000A371184B0E49641A644163431B0D1370B7
:10080000CEE70A4FF2E7201D1349FFF7DDFEC7E7E9
:100810006A21124B084AFF31084801F0F7FB034FE9
:1008200069E7C046240100D000ED00E0CD010010D2
:100830003C020020486D0010106E0010E86B0010A4
:1008400001BD00007D080220306D0010006E001018
:1008500001BDFFFFAAAA0000760200207C6D0010F7
:1008600010B5032304009C43064A9446644422685E
:100870001840C000FC3383409A43130081400B436F
:10088000236010BD00E400E0F8B5012101432E4BC8
:10089000CB1A2F2B28D8EFF30583002B2BD0EFF3A7
:1008A000108572B6294A1268002AFBD0BFF35F8F09
:1008B000274A0400244EA41B64416243120D54B223
:1008C000244A92689B00D2588A421BD00022032AF5
:1008D00032D853009B189B001B49CB189B795BB205
:1008E000A3421FD00132F2E7C7211B4B1B4A49002C
:1008F0001B4801F08BFB92211A4B184AFF31184814
:1009000001F084FB134A92681749D150174B1A78AB
:1009100082711C70BFF35F8F0C4B00221A6085F34D
:100920001088F8BD0E005300991889007118FF2730
:100930008F710F4A8A80E9E7D1210E4B074A49009F
:10094000074801F063FBC0463C020020240100D0B0
:10095000AAAA000000ED00E0846D0010246E0010D3
:10096000E86B0010AC6D0010CD0100107D08022076
:1009700001BDFFFFB86D00100022044B02E00449E6
:1009800002C30132072AFAD97047C04600E400E0EA
:1009900080808080024B9C466144890001607047E2
:1009A0004000003410B50400FFF7C8FD010020002E
:1009B000FFF7F0FF01235B426360BFF35F8F10BD61
:1009C00010B50400FFF7BAFD01002000FFF7E2FFB9
:1009D00001235B42636000232372BFF35F8F10BD6E
:1009E00070B505000C00080000F044FE0949200025
:1009F00000F084FDFFF7A2FD074B9C466044800099
:100A000068602C75D0231B061B786B75A400034B04
:100A1000E55070BD1D0D001040000034BC040020E6
:100A200010B5084B1A68EFF3108172B61368002BEB
:100A3000FCD0BFF35F8F034804F044F9002000218D
:100A400010BDC0467007002010B5002922D00368F1
:100A50001B7B99421ED8174B9C4661440901836851
:100A60009C4661440C684968002A19D003681B7BC6
:100A70009A4215D883680F488446624412019A1836
:100A800010685368020001208B4201D80ED000206C
:100A9000C0B210BD084B094A3C21094801F0B6FA22
:100AA000054B064A3C21064801F0B0FAA242EFD8B5
:100AB000EDE7C046FFFFFF0F9C6F0010BC710010F8
:100AC000646F001010B500291ED0037B99421BD81B
:100AD0004B005B18033B0468A4466344002919D00B
:100AE000002A1DD0914221D0002A25D0047BA242A9
:100AF00022D80468500080180338201881701978B3
:100B000000291FD11A7010BD104B114A68211148DD
:100B100001F07CFA104B114A6F310E4801F076FA61
:100B20000F4B0E4A70210B4801F070FA0D4B0B4A27
:100B30007121084801F06AFA044B054A682105480A
:100B400001F064FA41701A70DDE7C046C06F001012
:100B50007C710010DC6F001028700010887100108C
:100B6000347000104070001070B506000D001400C5
:100B7000002914D0002A14D0806873689847002890
:100B800006D0220029003000FFF79CFF280007E074
:100B90002A0021003000FFF795FF200000E0100040
:100BA00070BD0800FCE70000F0B583B005000092BE
:100BB00001930AAB1C780BAB1F78002C26D003687E
:100BC0005A7B944207D10123002B19D1002C3BD131
:100BD000200003B0F0BD002C0CD01A7B944209D841
:100BE0001A6863001B19033BD3189B78002BEBD0CA
:100BF0000123E9E73E4B3F4A68213F4801F006FAEE
:100C00003E4B3F4A67213F4801F000FA03689C7B56
:100C1000002CDBD012D01A7B94420FD8620012193C
:100C2000033A19688C46624451789973002900D1BF
:100C3000D9730023937053701370C7E72C4B2D4A60
:100C400068212D4801F0E2F9002C3AD02B681B7B7B
:100C50009C4236D82C4BE3181B01AA689446634487
:100C6000009A1A60019A5A60089A9A60099ADA60A2
:100C70002E68002C2BD030D0337B9C422DD86300C3
:100C80001B19033B32689446634400229A705A70E1
:100C90001A70717B22003000FFF766FF7073844288
:100CA00000D095E7287D009A019B00F06FFC061E9E
:100CB00001D0002F17D00C9B002B00D188E71E70AD
:100CC00086E7124B124A3C210E4801F09FF9114B66
:100CD000114AA521084801F099F9054B054A6821F8
:100CE000054801F093F92868210000F087FEE2E74B
:100CF000C06F00107C710010DC6F00105870001085
:100D0000F4710010646F0010FFFFFF0F9C6F001064
:100D1000BC710010606F00109C710010F0B5DE46D1
:100D200057464E464546E0B58BB0099000230893E0
:100D30008200B54BD658370052E0B44BB44A3F213D
:100D4000B44801F063F9B44BB44A3C21B44801F013
:100D50005DF9002901D1002869D10021404600F049
:100D600043FEA04219D12A686B6806920793AB68CC
:100D70009846EB689A464346002B14D0002C18D0B6
:100D80003B681B7B9C4214D8631EFA68D35C0893B3
:100D90001B0218433861002015E0A24BA24A8E21A5
:100DA0009F4801F033F9A14B9F4A92219C4801F0E2
:100DB0002DF9994B9E4A4121994801F027F90023CA
:100DC0009A46984600207B68BFF35F8F00221A6026
:100DD00086F310884346002B32D1002800D10CE165
:100DE00000F04AFB02000B1EA7DB0020002106904A
:100DF00007917868EFF3108672B601680029FCD07D
:100E0000BFF35F8F396888464C7B002CD7D09AD0CF
:100E1000097B8C4297D8874965182D01B9688C46A3
:100E2000654428686968801A9941002991DD2A681B
:100E30006B68099800F0AAFB00239A469846C2E71F
:100E4000089B1B022343994651461800C0470500E2
:100E50000E007A68EFF3108B72B6136859424B415B
:100E6000D9B2002BF9D1BFF35F8F002E1EDB002E0D
:100E700046DD3B69002B47D04B456DD100F0FCFAB5
:100E800002000B1E6EDB52197341002B70DB002B2E
:100E900072DB0021049101310391029451460191CA
:100EA000414600913800FFF77FFE4CE03B69002B84
:100EB000DDD04B4514D1069A079B521BB341002B42
:100EC00014DB002B16DB0021049101310391029405
:100ED00051460191414600913800FFF765FE32E02E
:100EE000554B514AA1214E4801F090F8012252423F
:100EF000524BE6E7454B464A3F21464801F086F80B
:100F0000002E01D1002DB4D13B68002C50D05A7B6B
:100F1000944237D1012100294AD1DA7B002A4DD1F0
:100F20009A7B002A03D1DA7B002A5AD19C73DC73A6
:100F3000002C5CD03B681B7B9C4258D8FA68013C73
:100F4000135D0133135500233B617A68BFF35F8F54
:100F500013608BF3108843E7374B334AA4213048A2
:100F600001F054F8294B2A4A3F212A4801F04EF853
:100F700001225242314B8AE7244B254A3F21254822
:100F800001F044F8002C0DD01A7B94420AD862007C
:100F90001219033A1868844662449278002ABAD03B
:100FA0000121B8E7264B274A6821274801F02EF88F
:100FB000264B274AF621244801F028F8002A0AD0B7
:100FC000197B8A4207D851008A18033A19688C465F
:100FD00062445470A4E71A4B1A4A68211A4801F077
:100FE00015F81C4B1A4AFB21174801F00FF80A4B61
:100FF0000F4A41210A4801F009F80BB03CBC904669
:101000009946A246AB46F0BDBC040020946E001089
:1010100064710010B06E00109C6F0010BC71001065
:10102000646F0010807000100C7200109870001037
:10103000C8710010FFFFFF0FA4700010FFFFFF7FBB
:10104000C06F00107C710010DC6F0010E0700010A9
:10105000AC7100100471001010B50C4B5B68002BD4
:1010600004D00A210A48FFF795FC10BD074C230065
:10107000084A1021206800F0C7FB032000F0F0F9B7
:1010800003212000FFF7ACFCEBE7C0468402002000
:1010900070070020490A001010B5064B5B68002B52
:1010A00001D0044810BD044B044A5E21044800F0FE
:1010B000ADFFC0468402002018710010DC710010E2
:1010C000646F0010F0B5DE4657464E464546E0B523
:1010D0008BB0804616001F00149B9A46159B9946BC
:1010E00016AB1B789B461F2302AA9446634400223A
:1010F0001A702CE0002809D042461268127B9042F8
:1011000004D8421E4146C9688A5C42E0404B414ACD
:101110004121414800F07AFF0798002B6FD05B46D1
:10112000002B6CD04946D04704000D0003000B4350
:1011300000D16BE0002940DB00F09EF906000F1E95
:101140004BDB36196F41002F4DDB002F4FDB434641
:101150005A68EFF3108472B6136859424B41D9B202
:101160000791002BF8D1BFF35F8F1F3302AA94467B
:10117000634404930023039302934B460193534625
:10118000009332003B004046FFF70EFD031EB1D135
:10119000020041464968BFF35F8F00250D6084F36C
:1011A0001088002B29D01F2302A98C4663441B788A
:1011B000002BB1D112021043AFE7361BAF41002F15
:1011C00007DB002FC3DA154B154A3F21154800F005
:1011D0001DFF01267642144FF3E7104B104A3F21C2
:1011E000104800F013FF012676420F4FADE70B4B7E
:1011F0000B4A3F210B4800F009FF012040420BB091
:101200003CBC90469946A246AB46F0BD0798F6E72F
:101210009C6F0010C8710010646F0010946E001075
:1012200064710010B06E0010FFFFFF7FF8B504007E
:10123000002900D162E04268EFF3108572B61368AE
:1012400058424341D8B2002BF9D1BFF35F8FCBB2E4
:101250002268567BB3421BD10120002848D0206968
:1012600088422BD0090AC9B2002B2ED02068007BFF
:1012700083422AD8581EE668305C88422BD0002072
:101280006368BFF35F8F00221A6085F31088F8BD92
:10129000002B0DD0167BB3420AD85E00F618033E31
:1012A0001768BC466644B678002ED6D00120D4E735
:1012B000134B144A6821144800F0A8FE2C21134B4C
:1012C000134AFF31134800F0A1FE134B134A41218A
:1012D000104800F09BFE1900100000F08FFB002862
:1012E000CED199210E4B0A4A49000A4800F08EFEE1
:1012F00023698B42C4D100232361C1E70020C6E7E4
:10130000C06F00107C710010DC6F00103C71001089
:1013100028720010646F00109C6F0010C8710010DC
:101320006071001070B584B005000C00EFF3058308
:10133000002B12D0244B5B6A994209D8224A926A48
:10134000824208D2994201D0012002E0002000E050
:10135000002004B070BD0120FBE7FFF79DFE0023D5
:1013600002930193194B00932A002300FFF7AAFE72
:10137000061E11DC144B5B6A9C4209D8124A926A21
:10138000AA4207D29C4201D00120E2E70020E0E718
:101390000020DEE70120DCE720BFFFF77DFE310003
:1013A000FFF744FF084B5B6A9C4209D8064A926AE1
:1013B000AA4207D29C4201D00120CAE70020C8E718
:1013C0000020C6E70120C4E700400540210A0010C4
:1013D00070B5EFF305801038EFF3108472B61A4B36
:1013E0001B68002BFBD0BFF35F8F012213008340EB
:1013F00016494B6316490B60164909780D00C54024
:101400002A4214D0114A556A8200134E92599542CD
:1014100006D38200114D525999430E4B197007E0C3
:101420000A4A031D9B0099589950002200E00022AF
:10143000BFF35F8F044B0021196084F31088002AEA
:1014400000D0904770BDC046280100D00040054044
:101450003C7005407E080220740700203404002000
:1014600010B50100024A0348FFF73EF810BDC04620
:10147000407200107C080220044B5B6A034A906AA9
:101480001900536A9942F9D17047C046004005409F
:10149000074B5B6A8B4204D2054B5B6AFAE7044B4D
:1014A0005B6A8B4203D1024B9B6A8342F7D370473E
:1014B0000040054070B504000D00FFF7DDFF02009D
:1014C0000B0020002900801859418B4202D804D11A
:1014D000824202D901204042C117002902DBFFF7F6
:1014E000D7FF70BD024B034A3F21034800F08EFD39
:1014F000946E0010C8720010B06E001070B5040039
:101500000D00EFF3108672B61B4B1B68002BFBD04F
:10151000BFF35F8F002D1CD02000FFF799F8174B09
:1015200083420BD019002000FFF79AF80121200018
:10153000FFF786F80123A340114A1360A400114B62
:10154000E550BFF35F8F0C4B00221A6086F31088C2
:1015500070BDA2000B4B0021D1500122A2400A49CC
:101560000B7893430B7005492000FFF7A3F8002187
:101570002000FFF765F8E4E7280100D0D113001040
:1015800038600540340400207E080220F0B5DE46B5
:1015900000B584B00400150001921E000293FFF70D
:1015A0006BFF03958E4202D84ED185424CD9EFF3A2
:1015B000108B72B6274B1B68002BFBD0BFF35F8FDD
:1015C000254A17780125A540EBB23B431370234B06
:1015D0005D63221D92000199D150A200204902981A
:1015E00050501B6A2B4212D11C4B1B6C2B4208D053
:1015F0000020BFF35F8F174B00221A608BF3108817
:1016000023E0184B184AC521184800F0FFFCFFF7EB
:1016100033FF8E4214D802D1039B834210D80E4B65
:101620001B78BB420ED00D4B1D625D631F20044032
:101630000123A3400E4A1360074B1F701E38D8E7E2
:101640000020D6E70120D4E7012004B004BC934673
:10165000F0BDC046280100D07E08022000400540B1
:101660007407002064720010E0720010887200108D
:1016700080E200E010B5EFF3108472B60A4B1B68ED
:10168000002BFBD0BFF35F8F01238340074A136217
:1016900007490A789A430A70BFF35F8F024B002212
:1016A0001A6084F3108810BD280100D00040054066
:1016B0007E08022010B500291ED0037B99421BD85A
:1016C0004B005B18033B0468A4466344002919D00F
:1016D000002A1DD0914221D0002A25D0047BA242AD
:1016E00022D80468500080180338201881701978B7
:1016F00000291FD11A7010BD104B114A68211148E2
:1017000000F084FC104B114A6F310E4800F07EFC53
:101710000F4B0E4A70210B4800F078FC0D4B0B4A22
:101720007121084800F072FC044B054A6821054805
:1017300000F06CFC41701A70DDE7C046C06F00100D
:10174000A8730010DC6F001028700010B473001034
:10175000347000104070001070B506000D001400C9
:10176000002914D0002A14D0806873689847002894
:1017700006D0220029003000FFF79CFF280007E078
:101780002A0021003000FFF795FF200000E0100044
:1017900070BD0800FCE7000010B50023437301335F
:1017A0008373037BC3730123027B9A4214D9002BFA
:1017B0000CD0027B934209D85A00D218033A016830
:1017C0008C4662440133DBB25370EDE70B4B0C4A9D
:1017D00068210C4800F01AFC002A09D0924207D870
:1017E000016853009A18033A8A180023537010BDF9
:1017F000024B034A6821034800F008FCC06F001048
:10180000A8730010DC6F001010B501734260836094
:10181000FFF7C2FF10BD000070B50400081E00D124
:1018200070BD002934D0237B994231D84B005B181E
:10183000033B2268944663445A78002AF0D02DD0A6
:10184000237B9A422AD853009B18033B21688C467D
:1018500063445D7800215970002825D0237B98428D
:1018600022D843001B18033B21688C4663440021A7
:10187000597001002000FFF76FFF060029002000CB
:10188000FFF7CAFF020031002000FFF765FFC7E73E
:10189000084B094A6821094800F0B8FB054B064A85
:1018A0006821064800F0B2FB024B034A6821034856
:1018B00000F0ACFBC06F0010A8730010DC6F0010CC
:1018C00070B505000C00160000292FD034D0037B22
:1018D000994231D84B005B18033B0268944663443D
:1018E0005A78002A2ED19A78002A31D11978FFF738
:1018F00093FF0300002E0AD0EA7B002A2ED1AA7B98
:10190000002A03D1EA7B002A3BD1AC73EC73002B95
:101910003DD1002C4FD02B7B9C424CD82B686100D2
:101920000C19033C1C190023637070BD254B264A1B
:101930003821264800F06AFB254B264A68212648B4
:1019400000F064FB254B204A3A21204800F05EFB62
:10195000234B1D4A3B211D4800F058FB002A0AD0AA
:10196000297B8A4207D851008A18033A29688C4695
:1019700062445470C3E7164B164A6821164800F0BB
:1019800045FB184B104A4221104800F03FFB002B4A
:101990000BD02A7B934208D843001B18033B2A68CC
:1019A0009446634400229A70B3E7094B094A6821C0
:1019B000094800F02BFB064B064A6821064800F058
:1019C00025FBC046FC720010C873001004730010A1
:1019D000C06F0010A8730010DC6F00103C73001083
:1019E000647300100471001070B504000A00457B98
:1019F0002900FFF765FF6073280070BD70B5040013
:101A0000002966D0437B8B420ED0002911D0037B86
:101A100099420ED84B005B18033B0268D0188378BC
:101A2000002B0CD1002055E00121FFF7DDFF012044
:101A300050E0294B294A6821294800F0E7FA002B99
:101A40001FD0227B93421CD825685A00D318033B31
:101A5000EA18EB5C8B421AD0002B1BD0227B9342FE
:101A600018D85A00D318033B2268D21853788B42F7
:101A700016D0002BF0D11B4B1B4A6B211B4800F0EA
:101A8000C5FA154B154A6821154800F0BFFA43788E
:101A9000137007E0104B114A6821114800F0B6FAA4
:101AA0004378537000238370437001222000FFF7B6
:101AB00007FF0200617B814205D02000FFF74CFE4A
:101AC0006073012006E00A4B074A7121074800F0C5
:101AD0009DFA002070BDC046C06F0010A8730010B2
:101AE000DC6F0010B86D0010DC7300100473001080
:101AF0008873001070B5046BE30701D4200070BD3B
:101B000002003032C0239B0113430A4A1A60456A1F
:101B1000836AAD01ED18AD02062000F0BDF906495B
:101B200001F024FC0100280001F020FC0021FFF757
:101B3000C1FCE3E7010300004E0E0000F8B504000D
:101B40000E001500FFF7D6FF27002C37E16A4E4044
:101B5000354080235B013B431D602063F8BD0000DE
:101B600070B505000C00062000F096F9C0002100B9
:101B700001F0FCFBC60908D00E4B9E4216D87F230D
:101B8000184001303400460800E001246C62AE6267
:101B9000002200212800FFF7D1FF062000F07CF989
:101BA0008000A101891901F0E1FB70BD0026024C03
:101BB000ECE7C046FEFF0000FFFF000010B505394E
:101BC0004901013AD2001143002B09D002220A43F5
:101BD000012B07D0002111436E22FFF7AFFF10BD8C
:101BE0000022F4E70421F6E7002909D00A22064B77
:101BF0009C466044434258414000044BC2527047E7
:101C000080225200F3E7C0460080FCBF800802201B
:101C100070B505000C00062000F03EF9061E27D026
:101C2000164B9D4226D08022D203154B1A60154BCD
:101C30001A60154B9B6811009943FAD100212800C6
:101C4000FFF7D2FF21002800FFF78AFF06000023DC
:101C5000012208212800FFF7B1FF2A002C3280233F
:101C60009B01134310221A60084B2B630323AB64C0
:101C7000300070BD80221204D7E7C04600800340C8
:101C800000E0004000F0004000C000400103000000
:101C9000F8B5DE4657464E464546E0B505000F000E
:101CA00092461E000A9B9E4250D3330E994636023E
:101CB0000A9A00233000494601F096FB80466C00EA
:101CC0006419A4002F4B9C4664446368834200D28D
:101CD00060602B1FDBB29B46012B3DD9C0239B01CB
:101CE0002343802212011A60AB00274A9958002929
:101CF00007D0506901F03AFB431C5800C018033864
:101D0000FDD253465A0123685A40E0231A408023EB
:101D10005B0123431A605A46012A28D980239B017C
:101D20002343802212011A60434663604246002327
:101D30003000494601F058FBAD00134B58510120CB
:101D40003CBC90469946A246AB46F8BD0F4B104AA4
:101D50003321104800F05AF9012FBFD1C0239B0155
:101D6000234303221A60A368DB07FCD5C9E7216877
:101D7000794003220A401A60A3680122BA401A423D
:101D8000FAD0CBE7008000404C040020F473001030
:101D90004C7400100874001030B583B00C2000F0B3
:101DA00013F9FEF781FB00280DD00023092B05D87D
:101DB00099002D4A2D4888500133F7E72A4B2C4AC9
:101DC0005A6203B030BD2B4B00229A6700F004F931
:101DD000294B01221A60274B5B6C012BFBD1274B4F
:101DE00003221A60234B9B6B012BFBD10133009321
:101DF0000433234A0121234800F054F805230093BB
:101E0000214A0121214800F04DF8214B0093002286
:101E100002210420FFF73CFF1E4D00952B000022FD
:101E200001210520FFF734FF104C0094230000220D
:101E300000210720FFF72CFF00942300002200213F
:101E40000820FFF725FF0A4B009323000022002102
:101E50000920FFF71DFF00952B000022002106201E
:101E6000FFF716FFADE7C0464C040020006CDC0213
:101E70001BB70000008000403CB0004030B0004084
:101E8000002F685900800240008C864700C0024045
:101E9000001BB700405973078000014BC0587047C2
:101EA0004C040020F0B5C64600B504000E00904674
:101EB0001D00384801F05AFA0700374A4244374BB0
:101EC0009A423AD80100404601F050FA0200103A16
:101ED00098235B009A4236D86B1E062B39D8069B96
:101EE000013B062B35D843461A09BA4237D32D0495
:101EF000069B1F032F432368002B36DB284B9C4295
:101F000044D080256D01274B1D60274B1D60274A5B
:101F100092682B009343FAD12660A060221DC02353
:101F20009B01134321221A602268002AFCDAE76031
:101F300008221A6004BC9046F0BD1D4B1D4A1121B9
:101F40001D4800F063F81D4B1A4A19211A4800F089
:101F50005DF81B4B174A1C21174800F057F8194B26
:101F6000144A2321144800F051F822683F231340FB
:101F7000B342C3D1A3681B051B0D8342BED1E368E6
:101F8000EE22D2021340BB42B8D1D3E78025AD0187
:101F9000B9E7C046001BB70080E84BD380F8A932F0
:101FA00000C0024000E0004000F0004000C00040DF
:101FB0005C7400107C750010BC740010F874001084
:101FC000147500106075001080239B000343014AC4
:101FD000D362704700800540064BAA2212011A60A6
:101FE0002F22DA60044B054A1A60024B5B68002B13
:101FF000FBDA7047004002400060024000B0FA0087
:1020000000BEFDE710B5FFF7FBFF000010B582B082
:102010000C001900002A0CD0084B002A0BD00192AA
:10202000009323000200064802F0DAF90120FFF7CE
:10203000E7FF044BF1E7034AF1E7C046887500105B
:10204000987500109475001070B52B4B2B4A1A60D0
:102050002B4B2C4A1A602C4B9A682A4B9343FAD18B
:102060002A4C2B4B9C4202D208CC9847F9E7FFF749
:1020700093FE234B274A1A60234B9B68DB43DB010B
:10208000FAD1254B40229A675A671A67DA66234CC1
:1020900009E0234B234A87212348FFF7B7FF20009D
:1020A000FEF780FC0834214B9C4209D22368002BA8
:1020B000F5D0012BEDD12000FEF782FC0C34F2E7C5
:1020C0001B4CA1681B4DC022280002F031F8A5600E
:1020D000EFF30583002B00D000BEFEF71FFAFEF7DA
:1020E0004BFCFEF7B9FF144C144B9C4202D208CCB7
:1020F0009847F9E770BDC04600E00040BFCDFBFE49
:1021000000F00040FE7F3C0000C0004000030020C3
:1021100010030020FFFFFF0100F00140F00200204B
:10212000C87500104C760010E87500100003002000
:1021300000ED00E000000020100300201803002044
:102140000FB400B583B0084802F01AF9049B002BC5
:1021500007D005A90191180002F022F9034802F006
:102160000FF90120FFF74CFF287600103876001099
:1021700010B50148FFF7E4FF3C760010704710B53A
:10218000002802D00B684968984710BD0100002064
:102190000A681378303BDBB2092B08D883001B1880
:1021A0005B00501C08601078C0183038F0E77047AA
:1021B000F0B5DE4657464E464546E0B583B09346F9
:1021C0001F000C9B9A460D9C0E9B99460F9B9B07EC
:1021D00003D0B8460F00060022E00192A3468846CD
:1021E0004E46B9460700B44207D2551C4B464146FD
:1021F0002020B84701342A00F5E73D004F465C46F1
:10220000019B9B46B1464646B84637002E0007E084
:10221000013C551C5346185D43463900B0472A001F
:10222000002CF5D135003E0047460F9B9B0707D495
:10223000100003B03CBC90469946A246AB46F0BDA8
:10224000B0464E46B9462F005D46531BB342EFD20F
:10225000541C4B4641462020B8472200F5E7F0B514
:10226000CE46474680B585B0944698460C9D0D9C59
:102270000EAB1B789946109A119B129EB7071BD480
:10228000002B08D0F70706D54F46002F02D10C3798
:10229000374200D0013B944208D21F2C06D8302789
:1022A0002F550134F7E730272F550134F70703D5B1
:1022B0009C4201D21F2CF6D9F70615D5770505D417
:1022C000002C03D0944224D09C4222D00F9A102A92
:1022D0002BD00F9A102A30D00F9A022A35D01F2CFB
:1022E00002D830222A5501341F2C05D84A46002A2C
:1022F00031D02D222A550134039602930194009582
:1023000043466246FFF754FF05B00CBC9046994621
:10231000F0BD621E012C06D00F9F102F01D01400BB
:10232000D4E7023CD2E71400D0E7B206D1D41F2C88
:10233000CFD878222A550134D1E7B206CCD51F2C4C
:10234000CAD858222A550134C9E71F2CC7D8603291
:102350002A550134C3E7720703D52B222A550134CD
:10236000CAE73207C8D520222A550134C4E7F0B5A0
:10237000DE4657464E464546E0B593B081468A460E
:10238000089209931CAB10CB1B789B461E9D219B8A
:102390009846002C03D1102342469A43904680234E
:1023A000DB0046461E4042461A4212D0002C22D084
:1023B00000260EE03033D9B2771C0AAB99552900BC
:1023C000200000F0D3FFAC4216D31F2F14D83E00DC
:1023D00004002900200000F0C9FFCBB2092BE9D985
:1023E0004246920605D54121C918C9B20A39C9B277
:1023F000E2E76121F8E7270043460693209B059317
:102400001F9B049303955B46029301970AAB0093CD
:10241000099B089A51464846FFF721FF13B03CBC80
:1024200090469946A246AB46F0BDF0B5DE4657460B
:102430004E464546E0B595B0089009910A920B9337
:102440001E9E1F9C20AB1B789B46229B9946239D7A
:10245000269B9A463300234303D1103352469A43B6
:1024600092468023DB0057461F4052461A4219D03D
:10247000330023432DD0002714E03033DAB27B1C25
:1024800098460CABDA554A462B003000210000F08C
:10249000ABFFA5421FD819D043461F2B1BD8474678
:1024A00006000C004A462B003000210000F09CFF83
:1024B000D3B2092BE1D95246920605D54122D21852
:1024C000D2B20A3AD2B2DAE76122F8E7B145E3D9EB
:1024D00001E00023984653460693259B0593249BD1
:1024E00004934B4603935B460293434601930CAB24
:1024F00000930B9B0A9A09990898FFF7B0FE15B054
:102500003CBC90469946A246AB46F0BDF0B5DE46CF
:1025100057464E464546E0B591B083468A460C92F2
:1025200098461A9C08941B9D099522002B002000B8
:10253000290001F0E4F9002800D0E5E00122524230
:10254000D34B2000290001F0D5F9002800D0DBE0B2
:1025500001225242CF4B2000290001F0B5F900289A
:1025600000D0D1E000220023089D2800099E310000
:1025700001F0AAF9002800D0DDE00898099906903A
:1025800007918023DB001E9A1A400D921E9A1A4270
:1025900001D106231C930698079904000D000A0038
:1025A0000600024300D1CDE0080D4005400DBA4CB5
:1025B000A44660440A03120BB84B13431F0001F0FA
:1025C000B1F9B74AB74B01F03CF9B74AB74B01F044
:1025D00011F904000D000022B54B3000390001F064
:1025E00000F9B44AB44B01F02CF902000B002000B2
:1025F000290001F0FFF801F0ADF9814601F092F9F0
:1026000004000D00AD4AAE4B01F01BF90022AD4BAA
:1026100001F0F0F801F09EF90600AB4AAB4B200048
:10262000290001F00EF904000D00300001F07AF9E4
:10263000A74AA84B01F005F902000B002000290071
:1026400001F0CFF804000D0002000B0001F0F9F8D2
:102650000A900B91A04BF31800261F0522002B00B7
:102660002000290001F0C6F80E900F9122002B00E7
:1026700000208021C90501F0B4F804000D000022FB
:10268000964B0A980B9901F0BEF80022944B01F08A
:10269000B1F802000B000A980B9901F0B4F800227F
:1026A000904B01F0A7F802000B000A980B9901F07B
:1026B000AAF802000B002000290001F09BF802009C
:1026C0000B000E980F9901F09EF80022734B01F059
:1026D00091F832003B0001F0B4F806000F0004004E
:1026E0000D00069A079B01F005F900282CD0012364
:1026F0005B429C46E1440022794B3000390001F0F6
:1027000082F804000D001FE01E9B04931D9B0393A1
:102710001C9B0293089A099B0092019343460C9AD2
:102720005146584600F0F8F811B03CBC9046994626
:10273000A246AB46F0BD069580231B069C46664428
:1027400007961EE7002399464B466333C62B1FD8D6
:1027500004261E9B1B0527D52B00234310D0624A5D
:10276000624B0698079901F0BDF8002800D183E07C
:1027700000225F4B0698079901F0A6F800287BD04D
:102780001C9B4B4506DD4A46981A431E1C9303E0EA
:102790000526DEE700231C938023DB001E9A1A43E4
:1027A0001E920026002399461D9B9E426ED29F1BBF
:1027B00002231E9A1A400A921E9A134202D0002E39
:1027C00000D000274B46002B07D022002B00069894
:1027D000079901F018F80690079100220023089845
:1027E000099901F071F8002800D085E0414B1E9A4C
:1027F0001340049303971C9B0293069B079C009332
:10280000019443460C9A5146584600F085F8002E34
:1028100000D189E71E9B9B067AD54525441C43467B
:10282000020051462800D8474B46DA179B18534000
:1028300005220592013E0496002203920A3202927A
:102840004A46D00F01900093434622005146584615
:10285000FFF78DFD0A9B002B00D165E702005F4664
:102860000C9E1D9D931BAB4254D2541C43465146B3
:102870002020B8472200F5E71C9B002B94D00D9B2D
:10288000002B91D01C9B013B1C938DE700278FE709
:10289000FFFFEF7FFFFFEFFF01FCFFFF0000F03FB6
:1028A000FB799F501344D33FB3C8608B288AC63F3F
:1028B0000000F83F61436F63A787D23F71A3790996
:1028C0004F930A400000E03F1655B5BBB16B024084
:1028D000EF39FAFE422EE63FFF03000000002C40D5
:1028E00000002440000018402D431CEBE2361A3F44
:1028F00080842E41FFF7FFFF069C079D22002900E0
:1029000080200006844661440B00069207936DE721
:10291000652583E7100007E7F0B5DE4657464E46CB
:102920004546E0B595B00690079193469946209F9D
:102930001E9A1F9B1000190000F0E1FF002831D102
:1029400001225242BF4B1E981F9900F0BDFF002884
:1029500037D101225242BC4B1E981F9900F0CAFF8A
:1029600000283DD10022B94B1E981F9900F0C2FFEC
:10297000002850D10022B64B1E981F9900F0A4FFEA
:10298000002848D1002200231E981F9900F09CFFC8
:10299000002850D100239846229B5B0500D4B6E066
:1029A000002458E0229B0393219B0293032301936D
:1029B000A84B00934B465A4607990698FFF7F8FB39
:1029C0000EE1229B0393219B029304230193A24BCC
:1029D00000934B465A4607990698FFF7E9FBFFE03C
:1029E0000423229A1A4022990B4210D09B4B002AB2
:1029F0000FD0042222990391219902910192009310
:102A00004B465A4607990698FFF7D2FBE8E0944BED
:102A1000EDE70322EEE7229B0493219B03930297A9
:102A20001E9B1F9C009301944B465A46079906989B
:102A3000FFF76CFDD4E01E9A1F9B0020002100F0E0
:102A4000D0FE1E901F9101239846A5E70CAB3022C3
:102A50001A55013F01341F2C01D8092FF6D81E98B2
:102A60001F9900F077FF050000F05CFF02000B00EB
:102A70001E981F9900F0B5FEFA007A4B9B181A6851
:102A80005B680A920B9300F0DCFE0890099100F05D
:102A900085FF060000F042FF02000B00089809992C
:102AA00000F09FFE0890099100226F4B00F022FF7A
:102AB00000282ED00136300000F030FF02000B005D
:102AC0000A980B9900F006FF002801D00135002676
:102AD000002F2CD1280000F025FF02000B001E98CB
:102AE0001F9900F07EFE06000F0000225E4B00F0F2
:102AF000EBFE002842D100225B4B3000390000F091
:102B0000F9FE00283AD1EB0738D5013536E0062723
:102B100046E70022544B0898099900F0D5FE00289A
:102B2000D6D1002E01D0F307D2D50136D0E7AA4680
:102B30001F2C11D8013F0A21300000F017FC651C42
:102B400030310CAB19550A21300000F00FFC092E72
:102B500026D906002C00EBE7554604E00CAA3021EC
:102B600011551F0001341F2C02D87B1E002FF5D1F8
:102B70001F2C03D80CAB2E221A5501341F2C14D84D
:102B80000A21280000F0CAFB661C30310CAB195535
:102B90000A21280000F0C2FB051E05D03400EDE735
:102BA0002B0055461C00DEE734000323229A134015
:102BB000012B1CD01F2C06D84346002B32D00CAB67
:102BC0002D221A550134229B0393219B02930194D9
:102BD0000CAB00934B465A4607990698FFF7E8FA64
:102BE00015B03CBC90469946A246AB46F0BD219B31
:102BF000002B13D04346002B02D10C3313420FD0CD
:102C0000219B013B2193190003E00CAB30221A55A4
:102C100001348C42CED21F2CF7D9CBE72199F8E7AB
:102C20002199F6E7229B5B0704D50CAB2B221A55A2
:102C30000134C8E7229B1B07C5D50CAB20221A55CF
:102C40000134C0E7FFFFEFFFFFFFEF7F65CDCD4110
:102C500065CDCDC1687600106C76001060760010EE
:102C60005C760010587800100000E03FF0B5DE46BA
:102C700057464E464546E0B593B082468B46904651
:102C80001193002900D1ECE200275546119B1878DA
:102C9000002800D1E8E2252809D07C1C43463A00F0
:102CA0005946A847119B013311932700EEE70133E2
:102CB000119300241DE00B00303BDBB2092B37D908
:102CC0002A293AD000230A93119B1A782E2A44D03D
:102CD00000239A46119A1378683BD9B2122900D979
:102CE00080E08B00CB49CB589F4601231C43013227
:102CF0001192119A11780B00203BD8B21028DAD823
:102D00008300C548C3589F4602231C4301321192D9
:102D1000EFE704231C4301321192EAE708231C4326
:102D200001321192E5E710231C4301321192E0E7D2
:102D300011A8FFF72BFA0A90C6E71C9B1A1D1C92DC
:102D40001868002804DB0A90119B01331193BBE73C
:102D500002231C4343420A93F6E78022D200144325
:102D60005A1C11925A781300303BDBB2092B04D95C
:102D70002A2A07D000239A46ACE711A8FFF706FAE3
:102D80008246A7E71C9B1A1D1C921868002804DBCA
:102D90008246119B013311939CE70020F8E78023C2
:102DA0005B002343511C119152786C2A01D01C0006
:102DB00018E0C0239B001C430131119112E08023D5
:102DC0002343511C11915278682A01D01C0009E05C
:102DD000C0231C430131119104E080235B001C439C
:102DE00001321192119B18780300253BDAB2532A65
:102DF00000D92CE29300894AD3589F4680239B0038
:102E00001C4301321192EDE780235B001C43013229
:102E10001192E7E7782809D0582838D06F2838D0A1
:102E2000622838D010239C430A2600E01026582838
:102E300033D0692803D0642801D00C229443630561
:102E400001D50122944369282AD0642828D0A305FB
:102E500000D59FE0E30500D5B8E0630600D4CAE0E2
:102E60001C9A111D1C911168FF220A4005940A9BAF
:102E70000493534603930296002301930092434622
:102E80003A0059462800FFF772FA070027E010269B
:102E9000CDE70826CBE70226C9E720221443C8E77E
:102EA000A30520D4E30550D4630666D51C9A111DF2
:102EB0001C911168FF220A40D317D118594005947C
:102EC0000A9B0493534603930296D20F01920091FA
:102ED00043463A0059462800FFF749FA0700119B7C
:102EE00001331193D2E61C9BDA1D07218A4311009E
:102EF00008311C91116853689C46DB170C930D93A5
:102F00000C9A0D9B100048400E90624653400F9360
:102F10000E980F990C9A0D9B801A99410E900F9163
:102F200008940A9B0793534606930496002305933F
:102F30006346DA0F02920090019143463A005946E7
:102F40002800FFF772FA0700C9E71C9A111D1C91AF
:102F50001268D317D118594005940A9B049353461D
:102F600003930296D20F0192009143463A005946CC
:102F70002800FFF7FCF90700B1E7230605D51C9AE6
:102F8000111D1C910023D25E96E71C9A111D1C9105
:102F9000126891E71C9BDA1D07218A431100083152
:102FA0001C9108940A9B07935346069304960023AA
:102FB00005930293136854680093019443463A00C2
:102FC00059462800FFF731FA070088E71C9A111DBF
:102FD0001C9105940A9B0493534603930296002385
:102FE00001931368009343463A0059462800FFF7BF
:102FF000BEF9070073E7230606D51C9A111D1C9124
:1030000012681204120C31E71C9A111D1C911268EF
:103010002CE7C04674760010C076001004770010CC
:1030200046281AD01C9B0733072293431A00083204
:103030001C9204940A9A0392524602925C681B689E
:103040000093019443463A0059462800FFF764FC78
:103050000700119B0133119318E620231C43E1E77D
:10306000672801D0472802D180231B011C43452833
:1030700001D0472801D120231C431C9B0733072282
:1030800093431A0008321C9204940A9A03925246FF
:1030900002925C681B680093019443463A005946CB
:1030A0002800FFF733FA0700119B01331193EDE578
:1030B00002231A002240924623421FD001241C9B67
:1030C0001A1D1C927A1C9146187843463A005946BC
:1030D000A8475346002B16D1119B013311934F463D
:1030E000D4E5561C434659462020B84723003200F9
:1030F0005C1C9D42F5D83D001700E0E701233A0033
:103100002F000A9DF4E74A46A9460A9D06E0571C8F
:10311000434659462020C84734003A00661CA54261
:10312000F5D84D469146D7E71C9B1A1D1C921B688B
:1031300099465346002B00D1013B4E4601E0013633
:1031400013003278002A02D05A1E002BF7D14B46CA
:10315000F21A10928023DB0026001E401C4203D08E
:10316000524501D95346109302231A0022400B9274
:10317000234205D03A0037004C46A946554620E088
:103180003A00109B5F46B3462E0006E0551C4346AE
:1031900039002020B04723002A005C1C0A9999427C
:1031A000F4D835005E46BB46109437004C46A9461D
:1031B000554606E01D000134561C43465946C84793
:1031C00032002078002804D0002FF4D06B1E002D90
:1031D000F0D117004D460B9B002B03D1119B0133FF
:1031E000119353E50A9F109B06E0561C434659462F
:1031F0002020A847230032005C1C9F42F5D817000E
:10320000ECE721231C431C9B1A1D1C921B68009396
:103210000594082304935346039310230293002339
:10322000019343463A0059462800FFF7A0F80700EB
:10323000119B0133119329E57C1C43463A00594602
:103240002520A847119B0133119327001EE57C1C04
:1032500043463A005946A847119B01331193270072
:1032600014E50B4B9A460FE5AA4647450DD3434656
:103270005A1E434659460020D047380013B03CBC84
:1032800090469946A246AB46F0BD3A00F1E7C046EB
:103290007D21001000B585B00290039101210093BB
:1032A00013004A4202A90248FFF7E0FC05B000BD46
:1032B0007F21001001480421014B1847B002002073
:1032C000E532001010B5010018231B881422108865
:1032D000984710BD10B5010018231B8816221088CE
:1032E000984710BDF0B5C64600B507000E00002592
:1032F0000123984600E00135B5420AD2AC003C19E2
:103300002068FFF7DFFF20600028F4D100239846F3
:10331000F1E7404604BC9046F0BD0000124A936FAE
:103320009B0815D29066D166002905D0FFE7FFE71C
:10333000FFE7516F106F704704B580210906C2176F
:103340005140002800D0C84303F00EFC002104BD0A
:10335000F0B5146E556E576F166FFFF7E3FF1466E6
:10336000556657671667F0BD000000D0114A936F8D
:103370009B0813D210665166002905D0FFE7FFE7CE
:10338000FFE7516F106F704704B5002801D000208F
:10339000C04303F0E9FB002104BDC046F0B5146E44
:1033A000556E576F166FFFF7E5FF14665566576742
:1033B0001667F0BD000000D094464A4A926F92080A
:1033C000624601D228E0C046F0B5464E346E756EB6
:1033D000776F366F00F020F89446424A14665566BF
:1033E000576716676246F0BD94463E4A926F920850
:1033F000624601D254E0C046F0B53A4E346E756E66
:10340000776F366F00F04CF89446364A146655666E
:10341000576716676246F0BD002B24DB11D00029E8
:103420003EDA00B5C943404200D1013100F038F81E
:10343000C943404200D10131DB43524200D1013344
:1034400000BD002AEBD1002801D1002905D00020C1
:10345000C90FC90701D1C043410800B503F07CFB87
:103460000022002300BD00B500290ADBDB435242E5
:1034700000D1013300F014F8C943404200D10131BA
:1034800000BDC943404200D10131DB43524200D16B
:10349000013300F005F8DB43524200D1013300BD97
:1034A000002923D1002B18D1002A0CD0BC460D4F87
:1034B00038667A6600210023FFE7FFE7FFE77A6FAF
:1034C000386F67467047002801D00748010000B5F3
:1034D00003F042FB0022002300BD02000B0000208D
:1034E00000217047000000D0FFFFFFFF002B00D03D
:1034F000BFE0130C28D1002AE7D080B4114F396601
:103500007A66FFE7FFE730B4040C7B6F396F1B046A
:1035100023433B667A66FFE7FFE7FFE7C04684B2D6
:103520007B6F3D6F1B0423433B667A66FFE7FFE733
:10353000C04600232C042D0C7A6F386F00196941A6
:10354000B0BC7047000000D0F0B594460025140EC2
:1035500001D112020835140F01D112010435940F64
:1035600001D192000235D40F01D152000135D40BA4
:103570000134254F7C66254C3C660E0C93B2FFE768
:10358000FFE7FFE73C6F6643360C7703BE467343A5
:10359000DF0B5B04C01AB941130C7343DB18C91A63
:1035A000CE086643360CB64493B273431F0F1B011B
:1035B000C01AB941130C73431F0B1B05C01AB94144
:1035C000860D8F023E436643360C092D24DB520ADA
:1035D0007243801A7703460A6643360C16235B1B38
:1035E000DE40DF40BF1964466643821B70460435E7
:1035F00006330100D940A840C01900D30131A242CE
:1036000006D20023F0BD0000000000D0FFFFFFFF46
:10361000121B0130F3D3F1E709277F1BFE406446FC
:10362000A2B27243801A00D20139220C7243130CE9
:103630001204821A99410B007046043513370100B9
:10364000F940A840801900D30131002B02D1A242D9
:103650000AD2F0BD013000D30131121BFAD2013B76
:10366000F8D1A24200D2F0BD013000D30131121BCB
:10367000F7E7F0B51C0C00D080E00CB400251C0A64
:1036800004D11B02160E3343120208351C0B04D161
:103690001B01160F3343120104359C0B04D19B0010
:1036A000960F334392000235DC0B02D192185B4136
:1036B00001351C00971864410134464F7C66464C26
:1036C0003C660E0CFFE7FFE7FFE7C0463C6F664332
:1036D000360C7703BE4697B27743C01B00D2013940
:1036E000C01B00D201399FB27743C91BC91B170CFD
:1036F00077437E04FF0B801BB941CE086643360C2E
:103700000C2D33DBB644120B1F053A431B0B97B24B
:103710007743C01B00D201399FB27743C91B170CF6
:1037200077433E043F0C801BB941860D8F023E4318
:10373000664329277F1BFE400C3D7746AF40BF19EB
:1037400030BCA2B2ABB272437343801A9941220CCF
:103750007243130C1204801A994102000B000137C6
:10376000001BA941F9D2781E0021F0BD0C277F1B58
:10377000FE4077467F0BAF40FF19E0E700245D1C59
:1037800007D0144F7D663966FFE7FFE7FFE7FFE7E5
:103790003C6F95B29EB265436643401BB141150C28
:1037A0001E0C6543664336042F0C3E432D04401B1C
:1037B000B141994204D202000B0020000021F0BD6B
:1037C00001D19042F7D3801A994101349942F2D342
:1037D000F6E70000000000D0FFFFFFFF4840414037
:1037E000484018B41B4B5B68FC46019308BD04DFDE
:1037F000B73A001018B4174B1B68FC46019308BD7C
:1038000000DFC13A00109446134A926F920809D221
:10381000624618B40F4BDB68FC46019308BD0CDF11
:10382000793D00100C4AF0B5146E556E576F166F47
:103830006246FFF7EEFF084A14665566576716673B
:10384000F0BD18B4034B9B68FC46019308BD08DF2C
:103850001D3C001084080220000000D0FFB550403D
:103860004240504059404B40594000E0FFB5154F91
:103870004C00640D03D0BC4204D10C0314D80020CA
:10388000090D09055C00640D03D0BC4204D11C0382
:103890000AD800221B0D1B0501264B4009D44B40C2
:1038A00003D58B4200D18242FFBD9942FCD19042A8
:1038B000FFBD0B43DB1803431343F5D0C94349183D
:1038C000FFBD0000FF07000000B5FFF7CFFF8041FC
:1038D00000BDC04600B5FFF7C9FF01D9002000BDFB
:1038E000012000BD00B5FFF7B9FF01D9002000BDE0
:1038F000012000BD00B5FFF7B1FF804100BD0120F0
:1039000040054A00121804D85A00121801D80020A5
:1039100070470120704700207047000000210028F8
:1039200005D17047C1174840401AFAD0C90713B5EE
:10393000064B1B6898470CBC441CA2401005120B98
:103940000349091B09051943114310BD6C070020E9
:103950001F04000010B54C00620D8023D218DB005C
:10396000D21A5B057E2A10DD9E3A13DACC170903C2
:10397000490819435242D140640001341532202ACB
:1039800005DAD0400843604310BD002010BD084652
:10399000604310BDC80FC018013810BD18B4044BE7
:1039A0005B6AFC46019308BD24DF293F001000003C
:1039B0008408022070B513231C78012C0CD0012C34
:1039C00013DC022C02DC1F4A1F4B9A641F48FFF7CE
:1039D00079FC1F4B186070BD00231F2BEFD8990096
:1039E0001848194A88500133F7E71A48FFF772FC64
:1039F00005001948FFF76EFC023803789B007F2B07
:103A000019DD80222900104800F092FB022CD8D149
:103A1000124B1A88B5231B029A4209D1104B1A88FF
:103A2000104B9A4204D1104B1A88104B9A42C8D0BE
:103A30000020FEF785FB0E4B0E4A32210E48FEF7A2
:103A4000E5FAC0467D3A0010840802204C3300009D
:103A50006C07002053440000534600005438000017
:103A6000D8380000494600009C3800005946000044
:103A7000A878001044790010FC78001007B5604663
:103A8000002800D100BE01880A0A0230DF2AFAD1DC
:103A9000C9B2820804D3028840880004104300E0C1
:103AA0000068024A5050039007BD000084080220BD
:103AB0000FB403BC0CBCF0B50124E407634000E084
:103AC000F0B50C0DCF0F661E3605891B640503D3B8
:103AD000C943404200D30131640D03D0661CF60A8D
:103AE00007D0E41B00207F00791C89078912803CE5
:103AF00024031D0DDF0F6E1E36059B1B6D0503D3C2
:103B0000DB43524200D301336D0D03D06E1CF60A25
:103B100007D0ED1B00227F007B1C9B079B12803D82
:103B20002D032F1B661B58D4A446202E46DA2037BF
:103B30001400BC401D00BD40F24033412A438018B0
:103B40005941CB0F05D0C943C043002264425041C4
:103B5000514162464D0D28D10D0D07D100281FD0CF
:103B6000241940414941013A0D0DF9D0640006D3B2
:103B7000013000D30131002C01D140084000013A4E
:103B80000BD4941CE40A04D112051144DB07194438
:103B9000F0BDD907204B194300E0D9070020F0BD44
:103BA0000029DDD1002CDBD1F0BD0132C607400871
:103BB000CD0728434908002EE1D0D9E73C2E29DA69
:103BC000203E40371400BC4000D00124F240144392
:103BD0001A00BB401C43D317ACE7AC46202F08DAD1
:103BE00020360400B4400D00B540F8403941284368
:103BF000A5E73C2F0CDA203F40360400B44000D04B
:103C00000124F84004430800B1400C43C117EAE71F
:103C100010001900002494E70000F07FF0B50C0DAF
:103C2000661E3605891BE60A6405640D02D0651C14
:103C3000ED0A04D0002001210905803C2403A4469C
:103C40001C0D671E3F05DB1BE70A6405640D02D0EF
:103C5000651CED0A04D0002201231B05803C2403CF
:103C60007740644497B484B296B27443070C7E43A1
:103C7000150C6F4380B26843361802D3012000044C
:103C80003F183004350C00197D41844688B29AB241
:103C900050430C0C62431F0C7C438EB27E4392193E
:103CA00002D301263604A4191604170C36186741EE
:103CB00001BC81B29AB25143040C62431B0C5C43B9
:103CC00080B25843121802D30120000424181004B3
:103CD000130C401863412D185E410020474106BC7B
:103CE00088B293B258430C0C6343120C544389B20C
:103CF00051435B1802D301210904641819041A0CFA
:103D0000091862416D1856410020474118BCF9025C
:103D1000720D1143F0026A0D1043ED020A0D03D13A
:103D20006D1940414941013B124E9B1B7600B34245
:103D30000ED26D0007D3013000267141664635432F
:103D400001D1400840001B05C918E4072144F0BD1B
:103D50000BDA013306D1013004D101314F0D01D00E
:103D60004908F2E7E1070020F0BD013631050020E7
:103D7000EBE70000FF030000F0B51C0D671E3F05D8
:103D8000DB1BE70A6405640D02D0661CF60A04D04A
:103D9000002201231B05803C2403D0252D0600268C
:103DA000F6432E661E096E66CE0FF619B44649001C
:103DB0004F0D02D07E1CF60A03D000200021403FA8
:103DC0003F033E1BB600B444013F7F05C91B4908B1
:103DD0002E6F013676089C02950D25437543ED1331
:103DE0007543AD1301356D10F603761B0CB4CC0290
:103DF000450D2C43A2B2B3B25A43270C7B43350C7A
:103E00006F43A4B26C431B1902D3012424043F194D
:103E10001C041D0CA4187D4124196D41009A91B217
:103E2000ACB26143170C7C432B0C5F4392B25A43F4
:103E3000A41802D301221204BF182204230C521822
:103E40007B41019C6C431B19520ED9010A4344016A
:103E5000A01A81B2B2B2514303145A43360C7343D1
:103E600087B27743D617D21900277E4136049B19B3
:103E70001704160C7F185E417316ED18F301002627
:103E800080337541A90F06D16400690AE8055B0A11
:103E9000184309D22FE00422944480337541A90AC3
:103EA000A8059B0A184326D3404149412404009A9F
:103EB000019B0D005543641B4343E41A95B286B23F
:103EC0007543170C7E43030C5F4392B25A43B618F6
:103ED00002D301221204BF183204330C52197B4161
:103EE00052429C41002C02D4002201305141400832
:103EF000CA071043490802B06246D7079210084B20
:103F0000D218084B9A4203D212058918C919F0BD7C
:103F10000020002A01DC3900F0BD01331905F5E766
:103F2000FD030000FE070000002200B5203200F073
:103F300004F8080000BD000000220B150AD410B5DB
:103F4000944600F031F81414013400DA0021CB1744
:103F5000144C20470020002170476244343A0CD4AE
:103F60000C2A07DA04009140904052422032D4409B
:103F7000214310BDD843D94310BD203207D40C468D
:103F80009440524220321141D040204310BD0800DD
:103F9000C917203203D452422032104110BD1800FC
:103FA000190010BD5B3F00100A0DCC0F531E1B05FE
:103FB000C91A520503D3C943404200D30131520DFF
:103FC00003D0531CDB0A07D0121B00206400611CC5
:103FD00089078912803A1203014BD21A70470000F8
:103FE000FF03000070B513231D782A48FFF772F90C
:103FF0000400012D11D0012D09DDA31E1B789B00AB
:104000007F2B40DD80222100234800F091F82348D7
:10401000FFF758F9224B186070BD542201001E486A
:1040200000F086F81F4B1A881F4B9A421CD1A72319
:104030009B011A881D4B9A4216D11D4B1A881D4BA5
:104040009A4211D11C4B1A8894239B019A420BD19E
:104050001A4B1A881A4B9A4206D11A4B1A681A4BF5
:104060009A4201D1152307E01848FEF769F8990034
:104070001748094A885001331F2BF8D9144A064BB8
:104080001A62DA61B7E7134B134A42211348FDF76E
:10409000BDFFC04653460000840902204C33000097
:1040A0006C070020EE290000C40F0000C20D0000C4
:1040B000962B0000C0B50000182B0000CC2A000091
:1040C00010B50000FC2C000051ED876494750010C1
:1040D000E140001058790010D47900108C7900105C
:1040E00007B56046002800D100BE01880A0A0230E8
:1040F000DF2AFAD1C9B2820804D3028840880004BA
:10410000104300E00068024A5050039007BD0000D1
:104110008409022001480421014B1847C0020020F5
:10412000E5320010014B1B6818470000C002002058
:10413000014B5B6818470000C002002010B5030067
:10414000080011001B68984710BD0000F8B5070073
:104150000D001600437D002B02D0002400200CE04F
:1041600003681100280098472DE03B7D10E00221F4
:1041700015483B689847601C0134B44214DA002C9F
:10418000F3DD2B19013B1B780D3B5A425341DBB247
:104190002A5D0A2AF0D1002BEED1A042E7DA211ADB
:1041A00028183B689847E2E7B04203DA311A28182A
:1041B0003B689847002E06DDAD19013D2B780D3B7D
:1041C0005A4253413B75F8BD747A001070B5050032
:1041D0000368002B16D00C4B1C6805E0290004C9AD
:1041E0002000FFF7B3FF2469002C09D02368002BBF
:1041F000F9D0064B1B68002BF0D0A342F3D1EDE7BA
:1042000000232B6070BDC046B4040020B804002019
:1042100070B505000C000B68802B05D021684B1C85
:1042200023606418257170BD0800FFF7CFFFF5E724
:1042300010B5FDF721F902000B1E0BDB0D48002124
:1042400012184B41002B0BDB002B0DDB0A4802F050
:1042500093FC10BD094B0A4A3F210A48FDF7D6FEE0
:1042600001225242084BEFE7044B054A3F21054823
:10427000FDF7CCFE40420F00F8020020946E0010C3
:104280005C7A0010B06E0010FFFFFF7F10B502488F
:1042900002F05AFC10BDC046F8020020F0B5CE4630
:1042A000474680B583B006000D0090461C00FFF71E
:1042B000BFFF81466B1C05D0002C08D0194F1A4B4C
:1042C0001C6807E0300002F009FC0500F4E7174F16
:1042D000F5E72469002C17D02368002BF9D0144B84
:1042E0001B68002B01D0A342F3D12A00310020002B
:1042F000B8474346002BECD06B46D91D0A230B7000
:1043000001222000B847E4E74B46002B07D1681E86
:104310008541E8B203B00CBC90469946F0BDFFF76A
:10432000B5FFF4E73D410010B40400204D410010FA
:10433000B8040020094A1368002B0BD0834202D036
:1043400010331A00F7E7002907D10369136000232F
:10435000036102E0002900D010607047B40400201F
:1043600010B5064B1C6800E02469002C04D063687B
:10437000002BF9D09847F7E710BDC046B4040020E1
:1043800070B5050002F0AAFB040000230122010021
:104390002800FFF783FFFFF7E3FF200070BD000058
:1043A00070B5A2B004000E00FFF742FF0500002325
:1043B00001933300220001A90848FEF76BFF0400B7
:1043C00001A8FFF703FFFFF7CBFF002D02D120006C
:1043D00022B070BDFFF75AFFF9E7C0461142001046
:1043E0000FB400B583B004A901C90191FFF7D8FF4C
:1043F00003B008BC04B0184710B500F0F7F801206E
:1044000010BD0000F0B583B000251AE06B460733FD
:104410000D241C70002403E01F7817600134013361
:10442000002C1CD19769BF06FCD4F5E71E781660F6
:1044300001340133002C03D19669B606FCD4F5E7AC
:1044400001358D4210DA094B1A68465D084BD318C6
:104450005C4263415B00074C1B5FB342D6D06B46A6
:1044600007331E700024E5E703B0F0BD8407002089
:104470000080FCBF80080220F0B583B00700002058
:104480000DE09369DB06FCD413682B700134013511
:10449000002CF6D06B4607331B780370300088423F
:1044A0000CDA124B1A68936910252C001C401D422F
:1044B00004D1461C38186B46DD1DE9E70C4B1B6820
:1044C000002B0CD0094B1A68502393631100343130
:1044D000536B38221A4080235B010B431A6000287B
:1044E00001D003B0F0BD0338FBE7C04684070020CD
:1044F0004404002010B5064B1B68002B06D0054A6B
:10450000126800219163044A1068984710BDC046A4
:1045100044040020840700204804002070B50400F3
:104520000E001C4B1B681C4A981842425041143024
:104530000500002C03D0194A1268002A06D0002C6E
:1045400019D0164B1C60164B1E6070BD1549FCF748
:1045500087F801212800FCF773F80E4B1A685023E6
:10456000936311003431536B38221A4080235B016E
:104570000B431A60E5E7094A1268002AE1D00022DD
:104580009A6300212800FCF75BF806492800FCF735
:1045900091F8D6E7840700200080FCBF4404002087
:1045A00048040020F544001070B50D001C000D4BB0
:1045B0001860002A0BDA002C0EDA0A4B1868290062
:1045C000FDF726FB01210848FFF7B4FE70BD02216C
:1045D0001000FBF745FFEEE702212000FBF740FF4C
:1045E000EBE7C04684070020D002002010B5064B40
:1045F0001B78064B1B78E121012300224902044865
:10460000FFF7D2FF10BDC04630890010348900107A
:1046100000400340104A53071BD0D11D0723994384
:1046200080239B025B1A9B180A000C480260002141
:104630004160D318083B0720834309480360596051
:104640001960991A51601360064B1960064B196086
:10465000704780239B02E8E7880700203C0802207F
:10466000DC04002008080220FC07022010B51A4BC9
:1046700019001B688342FBD3174A914205D0174AA1
:1046800091420FD3164A91420CD84A688C18844242
:104690000FD042688418A34210D00360884200D033
:1046A000086010BDFE210F4B0F4AFF310F48FDF788
:1046B000ADFC406812184A600800EAE70C4C246818
:1046C000A34206D05B68D21842600B681B68036087
:1046D000E4E70460E2E7C0463C08022088070020C7
:1046E00087070220B87A0010607E0010347B00102B
:1046F000DC040020F8B5041E10D0030009330CD8E8
:10470000083407231A002240234207D001339B1AA2
:10471000DA43A2422AD3E41800E0002401F058FB57
:10472000484B1B68002B23D0002C00DA7AE000D124
:104730007AE0454B1868A04200D277E0434B1A68F4
:10474000434B9A4217D3434B9A4214D83F4953687C
:10475000A3421CD21368002B19D03D498B4210D3C1
:1047600011003C4A93420CD81A00F0E70024D5E728
:10477000FFF750FFD8E7384B384AF5213848FDF7A6
:1047800045FC354B354AFB213548FDF73FFC2D4BA9
:104790001B6893424CD00D6808352D4B9D422CD39D
:1047A0002C4B9D4229D813680B605368A3422BD32E
:1047B0001B1B102B07D9161977072CD17360546077
:1047C0000B6833600E605168401A1F4B1860254B10
:1047D0001B68984201D2234B186080231B060B43B1
:1047E000536000231360204A13680133136001F003
:1047F000C3FB6B071ED12800F8BD06211B4B174ACF
:10480000FF311748FDF702FC0E21194B134AFF3107
:104810001348FDF7FBFB8B21164B104A490010484B
:10482000FDF7F4FB0025E2E70025E0E70025DEE7E1
:104830000025DCE75821104B084AFF310848FDF7F6
:10484000E5FBC046DC040020FC0702203C080220F7
:104850008807002087070220A47B0010447E0010F8
:10486000347B00100808022014080220187C001075
:10487000907C0010C47C0010F87C001070B50028FB
:1048800027D00500083D1E4B9D4223D31D4B9D4262
:1048900020D80300083B5B68002B22DA0200083AAC
:1048A0001268002A24D1083804005B005B084360CA
:1048B00001F08EFA6368144A11688C4663441360F1
:1048C0002800FFF7D3FE114A13680133136001F08B
:1048D00053FB70BDB5210E4B0E4A49000E48FDF743
:1048E00095FB6C210D4B0B4AFF310B48FDF78EFBFE
:1048F000B6210B4B074A49000748FDF787FBC04626
:104900008807002087070220FC07022018080220E1
:10491000347D0010547E0010347B0010A87D001000
:104920001C7E001070470000000000000000000026
:104930000B4A13681868203080F30988022080F33E
:104940001488BFF36F8F3FBCAE4608BC04BC62B690
:104950001847C046C046C046C046C046C046C046CE
:10496000D004002000000000000000000000000053
:10497000EFF30980164B1A6820381060F0C04446E7
:104980004D4656465F46F0C00D221207146E556E16
:10499000566F176F3038F0C008B572B601F0BCFB27
:1049A00062B60CBC116808681030F0C8A046A94671
:1049B000B246BB4680F309880D2212073038F0C892
:1049C0001466556656671767F0C81847C046C04654
:1049D000D004002010B5FDF7CBFB000000B583B07C
:1049E000D0231B061B6DDB0703D5D0231B069B6D55
:1049F000F6E7D0231B06FF221A6500230193114B13
:104A00001A68EFF3108072B61368002BFCD0BFF366
:104A10005F8F0D4A1168002313600A4A1268BFF3C2
:104A20005F8F136080F31088084B186801AA00F0AC
:104A300053FB019B002B03D0054B802252051A60CB
:104A400003B000BDCC04002090070220F80702202C
:104A500004ED00E070B504000D00FCF70DFD020050
:104A60000B1E0BDBA41A9D410C4801214942001981
:104A7000694100290CDC07D0002070BD084B094AB1
:104A80003F210948FDF7C2FAFA239B009842F3D36D
:104A9000FA2292000023FEF78FFCEEE718FCFFFFDE
:104AA000946E0010A47F0010B06E001010B5031FAC
:104AB000802464041C60043B1960043B02491960B3
:104AC000143B1A60403810BDD549001010B50A4B90
:104AD0001B68002B08D1094B802252051A60BFF3D6
:104AE0004F8FBFF36F8F10BDE421054B054A49007E
:104AF0000548FDF78BFAC0466807002004ED00E08A
:104B00007C7E0010BC7F0010A07E001072B6044AAC
:104B1000136801331360BFF34F8FBFF36F8F70477C
:104B20008C070220074B1B68002B09D00022054987
:104B30000A6005490968BFF35F8F1A6081F3108826
:104B400062B67047680700208807022010B50A4B3C
:104B50001B68002B05D0013B074A1360002B07D0D0
:104B600010BDF221054B064A49000648FDF74EFAF2
:104B7000FFF7D8FFF4E7C0468C0702201C7F001027
:104B8000C87F0010A07E0010EFF3108072B670474F
:104B900080F310887047000010B5FFF7F5FF0400A0
:104BA00001F02AF9002803D0034B802252051A6035
:104BB0002000FFF7EDFF10BD04ED00E010B5094C3B
:104BC00000232360084A13600520FDF765F9FA21E8
:104BD0008900FEF7CBFB0138044B186007232360E4
:104BE00010BDC04610E000E018E000E014E000E076
:104BF00010B5224B1968FF2212040A431A60196883
:104C0000FF2212060A431A6002201D49404201F0A9
:104C100043FF01201B49404201F03EFF05201A4995
:104C2000404201F039FFFFF7C9FF184B00221A601C
:104C3000D0231B06164A19681170FF221A65D0236B
:104C40001B061B6DDB0703D5D0231B069B6DF6E708
:104C5000D0231B061C680F34FF212000FBF700FE49
:104C60000C492000FBF7FCFC01212000FBF7E8FCCD
:104C7000FFF75EFE01F050FAFFF7ACFE20ED00E01A
:104C800071490010994B0010254900108C07022033
:104C9000E8020020DD49001010B5094B1B78D02236
:104CA00012061068834200D010BDEFF30583002B7D
:104CB00002D05B00C018F7E701F074FCF4E7C046CF
:104CC000E802002010B582B00C0003682B498C4626
:104CD00063449A100123934019021943090A284B8F
:104CE0001A78D0231B061B689A4220D040BF254B60
:104CF0001B6802689A423BD01A68002AFCD0BFF3B6
:104D00005F8F214B1A68114319601E4B1B68BFF35C
:104D10005F8F00221A600023D022120653650268BA
:104D2000BFF35F8F136084F3108802B010BD40BFE3
:104D30000368BFF35F8F00221A6084F31088EFF3DB
:104D40000583DBB2002B04D1104B186800F074F916
:104D5000EBE7002301930D4B186801AA00F0BCF9A2
:104D6000019B002BE1D00A4B802252051A60DCE740
:104D7000054B1A6811431960CDE7C04600FFFF2FAD
:104D8000E8020020CC04002090070220F80702204F
:104D900004ED00E0F0B583B005000F0016001C0024
:104DA000EFF30583DBB2002B29D1344B1A78D023E3
:104DB0001B061B689A4228D1314B1B68002B31D14E
:104DC00030002100FFF746FE031E37D02A68002A74
:104DD0002ED02B490A602B4A17602A682A498C4634
:104DE00062449210012191400A021143090A274AA4
:104DF000106800930023012200F08CF825E0244B7A
:104E0000244A25492548FDF701F90368BFF35F8F60
:104E100000221A6081F3108830002100FCF782FA2A
:104E2000040023E01E4B1B4A1E491C48FDF7EEF808
:104E30001D4B184A1D491948FDF7E8F82B68BFF3C8
:104E40005F8F00221A6087F31088194B5B6A9C42BF
:104E500009D8174A926AB2420BD29C4201D001246F
:104E600002E0002400E00024002C04D0200003B065
:104E7000F0BD0124F8E7FFF729FEF7E7E80200207C
:104E8000680700208807022000FFFF2FF807022094
:104E9000307F0010DC7F001029040000A07E00108D
:104EA0007C7E001033040000907F00103B04000063
:104EB0000040054010B5FBF741FB054B9C466044A4
:104EC0008000044B186000F018F8034B186010BD08
:104ED00040000034CC040020F8070220002A03D14F
:104EE000014206D1100003E00840884203D00020B0
:104EF00070470120FCE70120FAE710B51C20FFF7FE
:104F0000F9FB041E03D0002308C000F0EFF82000D6
:104F100010BD0000F8B5CE46474680B506000D002E
:104F20009046994600282ED00B0E1F06002B31D13B
:104F3000002936D001F03CFB002802D1089B002B51
:104F400036D100F045FF34684A4629002000FFF7BB
:104F5000C5FF002833D04346002B02D02300AB43CB
:104F6000336001F009F8002F08D0002841D001F08B
:104F700091FB040083013FD52402240A20000CBCCD
:104F800090469946F8BD4421254B264AFF312648D4
:104F9000FDF73CF8A221254B224A49002248FDF7A3
:104FA00035F84621224B1F4AFF311F48FDF72EF8E6
:104FB000A421204B1B4A49001B48FDF727F8089BFA
:104FC000002B14D04346002B0ED139004B46002B4A
:104FD00002D08023DB0419432943301D089A01F0D5
:104FE0000BF93C00089FBCE780214904EEE7089FCD
:104FF000B7E7FFF76BFDBAE7FFF788FD34684A466D
:1050000029002000FFF76AFF002805D04346002B47
:1050100002D02300AB433360FFF798FDACE7C046F6
:10502000148000103C81001020800010848000104B
:10503000AC800010C4800010F8B504000D000028FA
:105040000CD00B0E1F06002B0ED106000C3600F004
:10505000BFFE206923681D43256018E0174B184ADE
:1050600018491948FCF7D2FF8921184B144A8900C6
:105070001548FCF7CBFF21681940994206D111E091
:10508000802189042368194301F0A6F92800B04261
:105090000CD04568026813021B0A5101EBD4216849
:1050A0000B42F3D0D201EBD51F43E9E72368BB43A2
:1050B000236000F061FF2068F8BDC0461480001036
:1050C0005081001023020000208000101881001081
:1050D00010B5FFF7B1FF10BD10B513000A000100B5
:1050E000014801F0A1FC10BDD150001003000833AD
:1050F0004360012252428260C36003610023036067
:10510000704700230361704730B50C68631C10D0F2
:10511000030008331A005B681D68A542FAD953687A
:105120004B6099608A6051600861036801330360D5
:1051300030BD0269F3E70369416882688A604168AB
:1051400051605A68824206D0002202611A68013A10
:105150001A601868704782685A60F5E710B5040055
:10516000FFF7D4FCA26BE36B9A4204D00024FFF754
:10517000EDFC200010BD0124F9E710B50400FFF795
:10518000C5FCA36B002B04D10124FFF7DFFC20003A
:1051900010BD0024F9E770B504001500866B026CA1
:1051A000002A0CD10368002B03D000200136A6632F
:1051B00070BD806801F00EFA0023A360F6E7002DB1
:1051C0000ED14068FEF7B4FF6368226C94466344D6
:1051D0006360A26893421BD3236863602800E5E7FD
:1051E000C068FEF7A5FF236C5A42E168CB1AE36062
:1051F00021688B4203D2A3689C466244E260022D80
:1052000001D00020D2E7002E04D0013E0020CDE7DF
:105210002800CBE70020C9E710B5030008001A6C8E
:10522000002A0AD0D9688918D9609C68A14201D3A4
:105230001968D960D968FEF77BFF10BD70B582B0E0
:105240000190846C002C0AD0A26BE36B9A420CD2C2
:10525000A26B93420FD80025280002B070BD194BF5
:10526000194A1A491A48FCF7D1FE1A4B164A1A492C
:105270001748FCF7CBFE4523E65C76B2002201A975
:105280002000FFF788FF0500731C0AD1636A002B1A
:10529000E2D02000243001F01FF80028DCD00125E6
:1052A000DAE700F0A3FD8642D6D27F2E04D0013685
:1052B00076B24523E654CFE7084B034A0849044831
:1052C000FCF7A4FE648100100C840010440C000064
:1052D00078810010D4810010450C00001C82001061
:1052E000650C000070B50500FFF710FC4523EC5C71
:1052F00064B20AE06B6A002B17D02800243000F05B
:10530000EBFF00280ED1013C64B2002C0DDDAB6C2C
:10531000002BEFD02800FFF791FF0028F3D001F019
:105320003BF9F0E701F038F9EDE74523FF22EA54B5
:10533000FFF70CFCFFF7EAFB4423EC5C64B203E0EC
:1053400001F02AF9013C64B2002C09DD2B69002B25
:1053500006D02800103000F0BFFF0028F2D0EFE7A1
:105360004423FF22EA54FFF7F1FB70BDF8B50400B7
:105370000D0000282BD0C36B002B54D0016C0026ED
:105380000F0C1A0C002F36D190B2002826D1002E17
:1053900049D1FFF7BBFB2268E36B206C0100594346
:1053A0005118A1600021A1636260013B4343D318FF
:1053B000E360FF234422A3540132A354002D29D1DA
:1053C0002369002B1DD1FFF7C1FB0120F8BD9921F6
:1053D000184B194A49001948FCF718FE081C89B2F5
:1053E0009BB24B4381B290B248431B0CC3181B0CB9
:1053F000CDD00126CBE792B2002AFAD13A1C181C74
:10540000EDE72000103000F067FF0028DBD0FFF749
:105410005DFBD8E720001030FFF768FE2000243045
:10542000FFF764FECFE76821054B034AFF310348CD
:10543000FCF7ECFD40820010908300107881001092
:105440004882001070B51D00049C00290BD1246017
:10545000E063216401212000FFF788FF5023E55419
:105460000023A36470BD2260F2E70000F0B583B0B2
:1054700004000D001700002831D000200A0C230C76
:10548000002A27D19AB2002A16D1002827D1280055
:1054900060430300553322D85430FFF72BF9061E22
:1054A00007D00200543200903B0029002000FFF793
:1054B000C9FF300003B0F0BD1A1C2E1CABB2A1B264
:1054C0005943B6B293B27343090C5B181B0CDCD082
:1054D0000120DAE79BB2002BFAD1261CEEE7034B42
:1054E000034A04490448FCF791FDC0466C82001051
:1054F000A48300101902000078810010F0B585B077
:1055000004000F0001921E00002813D0002917D0BC
:10551000022E02D1E36B012B1BD101F049F8051ECD
:105520001DD1019B002B5DD04E4B4F4A4F49504837
:10553000FCF76CFD4F4B4C4A4F494D48FCF766FD5C
:10554000036C002BE4D04D4B474A4D494848FCF7CB
:105550005DFD4C4B444A4C494548FCF757FD00253E
:1055600040E0A56B320039002000FFF714FEA36C69
:10557000002B10D0022E01D1002D04D12000FFF706
:105580005DFE002804D1FFF7E1FA012005B0F0BD6F
:10559000FFF79CFAF7E7636A002B04D10028F2D0EA
:1055A000FFF794FAEFE72000243000F095FE002882
:1055B000E9D0FFF78BFAE6E7FFF7C8FA0020E5E746
:1055C00002A800F085FF013519E044230022E254CF
:1055D00020E045230022E25421E02000FFF782FE74
:1055E00000F0CAFCFFF792FAA36BE26B9342B8D3C8
:1055F000022EB6D0019B002BDED0002DE0D0FFF7AD
:10560000A5FA00F0E5FBFFF781FA4423E25C52B211
:10561000531CDAD04523E25C52B2531CD9D0FFF7B9
:1056200095FA01A902A800F05FFF002813D120001D
:10563000FFF794FD0028D0D020001030019900F031
:10564000BDFD2000FFF74EFE00F096FC0028C9D1FA
:10565000FFF73CFAC6E72000FFF744FE00F08CFCA1
:10566000002093E7C4800010B88300108603000078
:1056700078810010408200108103000078820010C1
:1056800082030000D082001083030000F0B5D646EC
:10569000474680B583B004000F0001921D0000282A
:1056A00019D000291DD0022D02D1E36B012B21D18D
:1056B000FFF76AFA8046A36BE26B934220D3022D78
:1056C0001ED000244046FFF763FA200003B00CBC54
:1056D00090469A46F0BD334B334A34493448FCF780
:1056E00095FC036C002BDED0324B2F4A32493048F8
:1056F000FCF78CFC314B2C4A31492D48FCF786FCD9
:105700004523E65C76B2A36B9A462A003900200056
:10571000FFF741FD731C25D1A36C002B10D0022D87
:1057200002D15346002B30D12000FFF787FD00281F
:105730002DD0019A002A2CD0012313600124C1E747
:10574000636A002B01D10124BCE72000243000F063
:10575000C3FD00281FD0019A002A1ED00123136028
:105760000124AFE700F042FB864218D27F2E05D01D
:10577000013676B24523E6540124A3E79D21114B5F
:10578000094AC9000A48FCF741FC01249AE70124B0
:1057900098E7012496E7012494E7012492E7012485
:1057A00090E7C04640820010CC8300105D040000EA
:1057B00078810010788200105E040000D082001012
:1057C0005F0400001C820010F0B585B004000F00DB
:1057D000019200280ED0002913D000F0E9FE061E29
:1057E00018D1019B002B4FD0434B444A44494548B4
:1057F000FCF70CFCB521444B404AC9004148FCF77A
:1058000005FC036C002BE8D0404B3C4A40493D4826
:10581000FCF7FCFB002637E039002000FFF7FCFC1A
:10582000013DA5632369002B04D1FFF78FF9012007
:1058300005B0F0BD2000103000F04EFD0028F4D07F
:10584000FFF744F9F1E7FFF781F90020F0E702A83C
:1058500000F03EFE013621E044230022E25428E01D
:1058600045230022E25429E02000FFF73BFD00F031
:1058700083FB09E02000FFF735FD00F07DFB2000F1
:10588000FFF77BFC002835D1FFF740F9A56B002D11
:10589000C2D1019B002BD6D0002ED8D0FFF756F9ED
:1058A00000F096FAFFF732F94423E35C5BB2013370
:1058B000D2D04523E35C5BB20133D1D0FFF746F988
:1058C00001A902A800F010FE0028D3D12000FFF7A4
:1058D00054FC0028C8D020002430019900F06EFC50
:1058E0002000FFF7FFFC00F047FB0028CCD1FFF7BA
:1058F000EDF8C9E700209BE7C4800010E8830010A2
:10590000B105000078810010208300102C83001066
:10591000AC05000070B5002804D000290ED0002589
:1059200000230FE00F4B104A10491148FCF76EFBA3
:10593000104D6519002D01D02960686070BDDA0036
:1059400015190133072BF5D8DC000A4A12195268E1
:105950008242EDD0002DF4D1DA00064C1259002A13
:10596000EFD1ECE788830010F8830010390B0000BA
:1059700078810010840A022070B504000D00160022
:10598000FFF7C4F84423E35C5BB201330DD0452339
:10599000E35C5BB201330CD0FFF7D8F8A36B002BAC
:1059A0000BD02000FFF79EFC70BD44230022E25480
:1059B000EDE745230022E254EEE7200024303200D8
:1059C000290000F059FCECE7084B1B681B68002B12
:1059D00004D1074B012252421A607047034B1B68E7
:1059E000DB681A68024B1A60F7E7C046D80400204B
:1059F0000C08022010B50400006BFEF73FFF2000EA
:105A0000FEF73CFF10BD0000F8B5D6464F4680B506
:105A100081460F0016009A46089D0A9C9200A52117
:105A2000206BFEF77FFB1F4BF2189200236B9C4606
:105A3000624407239A431600002F0ED000220F2A3B
:105A400008D8B95CA31834331970BB5C002B01D0A3
:105A50000132F4E743230022E2541F2D1BD8E562F4
:105A6000E564201DFFF74DFB20001830FFF749FBD0
:105A7000246120235D1BA5616462524649463000C3
:105A8000FFF714F82060099B002B00D01C600CBCB1
:105A900091469A46F8BDC521034B044AC900044803
:105AA000FCF7B4FAFFFFFF3F8C840010388600102B
:105AB0003084001070B500241F2C08D8A3001B19D7
:105AC00098000E4BC018FFF711FB0134F4E70C4DA2
:105AD0002800FFF70BFB0B4C2000FFF707FB0A48E1
